:100000000EEF00F00000000000EF00F00000000024
:0A0010000000000000000000F3D71C
:10001C003F0E156E060E166E5B0E176E4F0E186E9B
:10002C00660E196E6D0E1A6E7D0E1B6E070E1C6E13
:10003C007F0E1D6E6F0E1E6E1F6A206A216A070EE0
:10004C00C16E926A956A1F6A140E1F5C30E2FF0E35
:10005C00806E150EE96E000EEA6E2050E926D8B0BF
:10006C00EA2AEECF83FF809280801A0E0C6EF80E77
:10007C000D6E0D2EFED70C2EFCD70000FF0E806EE1
:10008C00150EE96E000EEA6E2150E926D8B0EA2A68
:10009C00EECF83FF809080821A0E0C6EF80E0D6EE0
:1000AC000D2EFED70C2EFCD700001F2ACDD7202AF0
:1000BC002050090802E2212A206A21500508D8A004
:0600CC00216AC1D7FFD735
:020000040030CA
:0D000100220F0EFF0181FF0FC00FE00F4026
:00000001FF
