:10000000ACEF00F00000000000EF00F00000000086
:0A0010000000000000000000F3D71C
:10001C000134083609360450085E0550D8A0053C5A
:10002C00095E003601360F0E0C6E013408360936A7
:10003C00045000A006D0085E0550D8A0053C095E0F
:10004C0005D008260550D8B0053C092600360136E7
:10005C000C2EEBD700B006D0045008260550D8B0B3
:08006C00053C0926000012000A
:100074000450000A08E10550000A05E1FF0E006E75
:100084007F0E016E57D00D6A096A086A015000108C
:10009400D8B4000C015005180A6E0ABE0D1E0B6A76
:1000A40005AE05D0041E051E042AD8B4052A01AEE7
:1000B40005D0001E011E002AD8B4012A01500510E3
:1000C4000A6E0ABE10D0A8DF0BB020D00DAE000C13
:1000D400001E011E002AD8B4012A081E091E082A7F
:1000E400D8B4092A000C05AE0DD001BE07D00150CA
:1000F400096E0050086E016A006AE8D7016A006A56
:10010400002A000C011E001E0B2ADDD7082AD8B4D1
:10011400092A0450085CD8A4D9D70550095CD8A48E
:10012400D5D7096A086A002AD8B4012A01AECED705
:060134000000FF0C1200A8
:10013A00086A080E0C6E003408360450085ED8B0FF
:0E014A0002D00826D89000360C2EF5D71200F1
:100158003F0E166E060E176E5B0E186E4F0E196E5A
:10016800660E1A6E6D0E1B6E7D0E1C6E070E1D6ED2
:100178007F0E1E6E6F0E1F6E070E3E01F96FFF0E8B
:10018800C36EC46AC56A6F002CFF15F00A0E046EB0
:1001980015C000F0CEDF08C000F0160EE96E000EA4
:1001A800EA6E0050E926D8B0EA2A6F00BBFFCCFF00
:1001B800CD960D0E0C6EFB0E0D6E0D2EFED70C2E71
:1001C800FCD700000000CD860A0E046E15C000F0B2
:1001D800B0DF0A0E046EADDF08C000F0160EE96E3F
:1001E800000EEA6E0050E926D8B0EA2A6F00BBFF7D
:1001F800CCFFCD940D0E0C6EFB0E0D6E0D2EFED7A2
:100208000C2EFCD700000000CD84640E046E15C0CF
:1002180000F08FDF0A0E046E8CDF08C000F0160EA7
:10022800E96E000EEA6E0050E926D8B0EA2A6F009F
:10023800BBFFCCFFCD920D0E0C6EFB0E0D6E0D2E7E
:10024800FED70C2EFCD700000000CD82E80E046E0D
:10025800030E056E15C000F0000E016E07DF0A0ED2
:10026800046E000E056E02DF08C000F009C001F040
:10027800160E0024E96E000E0120EA6E6F00BBFF27
:10028800CCFFCD900D0E0C6EFB0E0D6E0D2EFED715
:0E0298000C2EFCD700000000CD8075D7FFD7DC
:020000040030CA
:0A000000770BFFBF7F3F9F0F010049
:00000001FF
