:04000000C0EF00F05D
:1000080000C017F001C016F002C015F0F2A409D024
:100018001FC000F0016A00C0D7FF1EC0D6FFC2840F
:10002800F2949EAC9AD0C4CF21F0206AC350202607
:10003800000E21229E9C490EC26E0C0E0D6E0D2ED6
:10004800FED70000C284C2A402D00000FCD7C4CFEF
:1000580001F0006AC3500024026E000E0120036EF6
:1000680002C01CF003C01DF0410EC26E080E02242F
:10007800186E000E0320196E080E025C1A6E000E30
:1000880003581B6E800E030A006E800E0318005C76
:1000980002E10250F70804E2FF0E186E030E196E13
:1000A800800E1D18006E800E005C02E1080E1C5CBC
:1000B80002E21A6A1B6A3ED0010E226E000E236EFF
:1000C80080944AD080B804D0226A236A809415D0DC
:1000D800800E1B18006E800E2118005C02E1205073
:1000E8001A5C06E3020E226E000E236E808405D091
:1000F800010E226E000E236E80942ED080B804D09C
:10010800226A236A809415D0800E2118006E800E12
:100118001918005C02E11850205C06E2020E226EFB
:10012800000E236E808405D0010E226E000E236E11
:10013800809412D0000E231802E1000E2218BCE0B1
:10014800000E231802E1010E2218BCE0000E23184D
:1001580002E1020E2218D2E09E9C17C000F016C0E1
:0801680001F015C002F01100C6
:100170000900F5CFE6FF0006FBE10106F9E11200F8
:10018000186A196A1A6A1B6A1C6A1D6A840E1E6E36
:100190006D0E1F6E206A216A226A236AC40EC16E28
:1001A0009280928292949288410EC26E9E9C9D8C07
:1001B000F28C810ED56EF294F28AF28E1FC000F09E
:0E01C000016A00C0D7FF1EC0D6FFFFD7FFD7D1
:020000040030CA
:0D000100220F0EFF0181FF0FC00FE00F4026
:00000001FF
