:0400000030EF00F0ED
:1000080000C015F0F2A205D01650000A02E1162A27
:10001800F292F0A007D0630E165C02E2160601D039
:0A002800166AF09015C000F01100F8
:10003200086A080E0C6E003408360450085ED8B008
:0E00420002D00826D89000360C2EF5D71200FA
:100050000900F5CFE6FF0006FBE10106F9E1120019
:10006000166A3F0E176E060E186E5B0E196E4F0E57
:100070001A6E660E1B6E6D0E1C6E7D0E1D6E070ECB
:100080001E6E7F0E1F6E6F0E206E070EC16E938068
:100090009382956A966AF18CF292F288F18AF090D6
:1000A000F086F28E0A0E046E16C000F0C2DF08C0A1
:1000B00000F0170EE96E000EEA6E0050E926D8B087
:1000C000EA2AEECF83FF84921A0E0C6EF80E0D6EA4
:1000D0000D2EFED70C2EFCD7000084820A0E046E73
:1000E00016C000F0A6DF170EE96E000EEA6E005093
:1000F000E926D8B0EA2AEECF83FF84901A0E0C6E60
:10010000F80E0D6E0D2EFED70C2EFCD7000084804D
:04011000C9D7FFD775
:020000040030CA
:0D000100220F0EFF0181FF0FC00FE00F4026
:00000001FF
