:040000005DEF01F0BF
:1000080000C018F001C017F00CC016F00DC015F0B4
:10001800D9D800C01BF00050000A04E0010E1C6E85
:10002800000E1D6E81CF1AF0F29018C000F017C0B4
:0C00380001F016C00CF015C00DF0110016
:06004400000000001200A4
:10004A000F0E0C6E470E0D6E0D2EFED70C2EFCD722
:06005A000000000012008E
:0A006000210E0D6E0D2EFED71200CA
:10006A000B6A0A6A096A00500402F4CF09F0F3CF56
:10007A0008F001500502F4CF0BF0F3CF0AF000505C
:10008A000502F3500926F4500A22E86A0B220150AD
:10009A000402F3500926F4500A22E86A0B2208C027
:1000AA0000F009C001F00AC002F00BC003F0120010
:1000BA001FBE02D0839E01D0838E1FBC02D0839CB8
:1000CA0001D0838C1FBA02D0839A01D0838A1FB8C9
:1000DA0002D0839801D0838819B002D0838401D0DA
:1000EA0083948386AADF83961FB602D0839E01D0AB
:1000FA00838E1FB402D0839C01D0838C1FB202D09E
:10010A00839A01D0838A1FB002D0839801D0838852
:10011A0019B002D0838401D0839483868EDF8396BC
:0C012A0019A002D08DDF01D096DF12007A
:10013600959695949598959A959C959E8396839475
:10014600839E839C839A83987DDF7CDF7BDF838A13
:100156008388838674DF839675DF838670DF839654
:1001660071DF83866CDF83966DDF8398838667DF16
:10017600839668DF838663DF8396839A838E83867E
:100186005EDF83965FDF839E8388838658DF839650
:100196008398838654DF839655DF838650DF839664
:1001A600838883864CDF83964DDF8398838647DF7B
:1001B6008396838E838C838A8388838640DF8396A7
:0601C60041DF1980120068
:1001CC00216A100E226E310E236E320E246E330E07
:1001DC00256E340E266E350E276E360E286E370EB3
:1001EC00296E380E2A6E390E2B6E2A0E2C6E300E9E
:1001FC002D6E230E2E6E1A0E0C6EF80E0D6E0D2E2D
:10020C00FED70C2EFCD70000206A040E205C0BE2FB
:10021C0022508114016E0150000A01E104D02236F3
:10022C002290202AF2D7010E816EF00E8114016EFD
:10023C000150F00A08E081CF00F00036009000C0B9
:10024C0081FF212AF2D7816A060E0C6E300E0D6EDC
:10025C000D2EFED70C2EFCD70000F00E8114016E73
:10026C000150F00AF1E1030E006E000E016E20C089
:10027C0004F0000E056EF3DE230E0026000E0122A4
:10028C0021500024E96E000E0120EA6EEECF00F042
:02029C0012004E
:10029E000900F5CFE6FF0006FBE10106F9E11200C9
:0C02AE0019901EC01FF002DF1980120022
:1002BA00070EC16EF00E936E956A38DF010E1F6E3F
:1002CA00F7DEF19E81CF1AF0F290F286F28E000EDE
:1002DA001D1802E1010E1C1805E11BC01EF0E2DF29
:0802EA001C6A1D6AF4D7FFD75E
:020000040030CA
:0D000100220F0EFF0181FF0FC00FE00F4026
:00000001FF
