:04000000ABEF01F071
:1000080000C015F081BA05D0172A17501308D8A0D8
:0E001800176A81CF21F0F29015C000F01100A0
:06002600000000001200C2
:10002C000F0E0C6E470E0D6E0D2EFED70C2EFCD740
:06003C00000000001200AC
:0A004200210E0D6E0D2EFED71200E8
:10004C00086A080E0C6E003408360450085ED8B0EE
:0E005C0002D00826D89000360C2EF5D71200E0
:10006A0031BE02D0839E01D0838E31BC02D0839CE4
:10007A0001D0838C31BA02D0839A01D0838A31B8F5
:10008A0002D0839801D0838820B002D0838401D023
:10009A0083948386C3DF839631B602D0839E01D0D0
:1000AA00838E31B402D0839C01D0838C31B202D0CA
:1000BA00839A01D0838A31B002D0839801D0838891
:1000CA0020B002D0838401D083948386A7DF8396ED
:0C00DA0020A002D0A6DF01D0AFDF120092
:0C00E60020902BC031F0BEDF2080120003
:1000F2002E6A030E2E5C0AE22E502C24E16E000EB4
:100102002D20E26E200EE66E2E2AF3D72E502C24DE
:10011200E16E000E2D20E26EE66A2E062E502C2491
:100122002F6E000E2D20306E0A0E046E2BC000F0D2
:100132008CDF08C000F0300E00262FC0E1FF30C077
:10014200E2FF00C0E6FF0A0E046E2BC000F07DDF66
:1001520000C02BF00050000A01E102D02E06DED7CB
:02016200120089
:10016400959695949598959A959C959E8396839447
:10017400839E839C839A839857DF56DF55DF838A57
:10018400838883864EDF83964FDF83864ADF839698
:100194004BDF838646DF839647DF8398838641DF80
:1001A400839642DF83863DDF8396839A838E83869C
:1001B40038DF839639DF839E8388838632DF839694
:1001C400839883862EDF83962FDF83862ADF8396A8
:1001D4008388838626DF839627DF8398838621DFBF
:1001E4008396838E838C838A838883861ADF83969F
:0601F4001BDF2080120059
:1001FA000900F5CFE6FF0006FBE10106F9E112006E
:10020A000FD0800E226E19D0C00E226E16D0940E18
:10021A00226E13D0D40E226E10D0800E226E0DD014
:10022A002250010AEEE02250020AEEE02250030AAE
:10023A00EEE02250040AEEE0F0D72304006E2250CA
:10024A00002600C022F000C031F00ADF2090266AA2
:10025A0026502424E96E000E2520EA6EEE520BE0A9
:10026A0026502424E96E000E2520EA6EEECF2BF0EC
:0A027A0035DF262AEDD720801200A0
:10028400276A286A22C029F0000E22BEFF0E2A6EB9
:10029400800E2218006E800E000A005C0AE2274AD3
:1002A400282A22500008296E2A6A000E22BEFF0E58
:1002B4002A5A29C02BF023C02CF024C02DF017DFBC
:1002C400040E256E000E266E000E006E2650005C95
:1002D40002E12550000819E225502324E16E26503E
:1002E4002420E26E010E255C006E000E2658016E7D
:1002F40000502324E96E01502420EA6EEECFE6FF7D
:10030400010E255E000E265ADFD723C0E1FF24C06C
:10031400E2FF200EE66E275028101AE0256A266AAE
:1003240025502324E96E26502420EA6EEE50200A3C
:1003340003E1254A262AF4D7010E255E000E265A2B
:1003440025502324E16E26502420E26E2D0EE66E05
:02035400120095
:10035600140E166E176A070EC16E938A956AFFDE33
:10036600010E316E7FDE81CF21F0F290F286F28EA1
:100376001750161812E017C022F0180E236E000E42
:10038600246E7DDF010E226E010E236E180E246E82
:0E039600000E256E37DF17C016F0EAD7FFD72E
:020000040030CA
:0D000100220F0EFF0181FF0FC00FE00F4026
:00000001FF
