:0400000017EF00F006
:1000080081AA03D0010E156E02D0156A809081CFA7
:0600180016F0F290110049
:10001E000900F5CFE6FF0006FBE10106F9E112004B
:10002E00156A070EC16E938A929081CF16F0F290E8
:10003E00F286F28E1550010A27E18080016A320E97
:10004E00015C0EE21550010A0BE11A0E0C6EF80E51
:10005E000D6E0D2EFED70C2EFCD70000012AEFD709
:10006E008090016A320E015C0EE21550010A0BE11E
:10007E001A0E0C6EF80E0D6E0D2EFED70C2EFCD732
:0E008E000000012AEFD701D08090D4D7FFD711
:020000040030CA
:0D000100220F0EFF0181FF0FC00FE00F4026
:00000001FF
