:040000005FEF00F0BE
:1000080000C017F001C016F002C015F019C000F0CA
:10001800016A00C0D7FF18C0D6FF000E1B1802E106
:10002800000E1A1803E180B001D00DD0000E1B1885
:1000380002E1020E1A1806E180A003D080B001D0B8
:1000480001D001D003D01A6A1B6A25D0000E1B18F4
:1000580002E1000E1A1803E180A001D00AD0000EB8
:100068001B1802E1010E1A1803E180A001D001D08B
:1000780005D0010E1A6E000E1B6E0DD0000E1B1857
:1000880002E1010E1A1807E180B005D0020E1A6EBF
:10009800000E1B6E1C70F29417C000F016C001F021
:0600A80015C002F011007A
:1000AE000900F5CFE6FF0006FBE10106F9E11200BB
:1000BE00480E186E770E196E070EC16E92809296CC
:1000CE001A6A1B6A1C90810ED56EF294F28AF28E19
:1000DE0019C000F0016A00C0D7FF18C0D6FFFFD7C5
:0200EE00FFD73A
:020000040030CA
:0D000100220F0EFF0181FF0FC00FE00F4026
:00000001FF
