:0400000009EF00F014
:0A0008008290829CD59EF2941100B4
:10001200070EC16E938093829490949C060ED56EC7
:10002200F294F28AF28ED5BE25D081A011D0E50ECF
:10003200156E480E166E16C000F0000E16BEFF0EAC
:10004200016E00C0D7FF15C0D6FF8280D58E12D0B8
:1000520081A210D0DC0E176E0B0E186E18C000F0C5
:10006200000E18BEFF0E016E00C0D7FF17C0D6FFEC
:08007200828CD58ED8D7FFD790
:020000040030CA
:0D000100220F0EFF0181FF0FC00FE00F4026
:00000001FF
