:04000000ACEF08F069
:1000080000C017F001C016F002C015F0C4CF01F00F
:10001800006AC3500024206E000E0120216E9E9CB1
:0E00280017C000F016C001F015C002F0110064
:100036000B820BAE25EF00F00368026801680068CA
:080046000A360232FF0E12001F
:0E004E00026A016A006A086A036A000E120064
:10005C000B840BAE39EF00F0010E036E026A016ADD
:0A006C00006A0A360232FF0E12008D
:080076000AAE029E000E12000A
:10007E000F0E0C6E470E0D6E0D2EFED70C2EFCD7EE
:06008E000000000012005A
:0600940000000000120054
:0A009A00210E0D6E0D2EFED7120090
:1000A40050BE02D0839E01D0838E50BC02D0839C6C
:1000B40001D0838C50BA02D0839A01D0838A50B87D
:1000C40002D0839801D0838839B002D0838401D0D0
:1000D40083948386DDDF839650B602D0839E01D05D
:1000E400838E50B402D0839C01D0838C50B202D052
:1000F400839A01D0838A50B002D0839801D0838838
:1001040039B002D0838401D083948386C1DF83967F
:0C01140039A002D0B2DF01D0BEDF120023
:100120000CB0D2EF00F00CA278EF01F00E6A000ED6
:100130000264E9EF00F0F00E0214D8A4B4EF00F06E
:10014000023A01380F0B02260138F00B016E00381D
:100150000F0B01260038F00B006E08380F0B00263D
:100160000838F00B086E0E84D89002BECDEF00F078
:1001700008360036013602360E2A02BECDEF00F0F8
:1001800008360036013602360E2A02BECDEF00F0E8
:1001900008360036013602360E2A0E5003646EEF22
:1001A00001F0035E0BBC08AE73EF01F0D880800E47
:1001B00008640030000E002201220222D8A073EF52
:1001C00001F0023201320032034A78EF01F073EF9E
:1001D00001F001C002F000C001F008C000F0086AA0
:1001E000000E0E86026420EF01F0F00E0214D8A477
:1001F00008EF01F0023A01380F0B02260138F00B2C
:10020000016E00380F0B01260038F00B006E0E84D3
:10021000D89002BECDEF00F00036013602360E2A2D
:1002200002BECDEF00F00036013602360E2A02BEC5
:10023000CDEF00F00036013602360E2ACDEF00F089
:1002400001C002F000C001F0006A000E0E960E8898
:1002500002644DEF01F0F00E0214D8A438EF01F063
:10026000023A01380F0B02260138F00B016E0E84A2
:10027000D89002BECDEF00F0013602360E2A02BE43
:10028000CDEF00F0013602360E2A02BECDEF00F0AF
:10029000013602360E2ACDEF00F001C002F0016AED
:1002A000000E0E8602647DEF01F0F00E0214D8A459
:1002B0005CEF01F0023A0E84D89002BECDEF00F060
:1002C00002360E2A02BECDEF00F002360E2A02BE22
:1002D000CDEF00F002360E2ACDEF00F0010E0C6ECD
:1002E000BDDE80EF01F0020E0C6EC5DE80EF01F086
:1002F000040E0C6EA0DE80EF01F0080E0C6EA7DE7F
:020300001200E9
:100302000A6A0350D8A40A800750D8A40A820A5065
:10031200D8B4E4EF01F0030AD8B49DEF01F00AB0BB
:1003220098EF01F006AEE2EF01F0E0EF01F002AE6D
:10033200E0EF01F0E2EF01F00250800B0A6E029E44
:100342000650800B069E0A18D8B4AEEF01F00A5090
:10035200D8B4E0EF01F0E2EF01F00750035CD8B44B
:10036200B8EF01F0D8A0D4EF01F0DAEF01F00650B7
:10037200025CD8B4C2EF01F0D8A0D4EF01F0DAEFFA
:1003820001F00550015CD8B4CCEF01F0D8A0D4EF55
:1003920001F0DAEF01F00450005CD8B4E4EF01F0B0
:1003A200D8B0DAEF01F00A52D8B4E2EF01F0E0EF90
:1003B20001F00A52D8B4E0EF01F0E2EF01F0D88088
:0E03C2001200D8901200D880D88412001200C9
:1003D000086A096A000E076203646DEF02F00250BA
:1003E00006180A6E075003267E0ED8A0FEEF01F015
:1003F000035ED8B071EF02F002EF02F0035ED8A006
:1004000075EF02F0028E068E02C00EF001C00BF0F6
:1004100000C00DF000500402F4CF0CF001500502B2
:10042000F4CF00F0F3CF08F00402F3500C26F450A0
:100430000822000E00220D500502F3500C26F45045
:100440000822000E002202500402F3500826F45045
:10045000002202500502016A000E0122F35000261C
:10046000F45001220D500602F3500826F4500022E9
:10047000026A000E012202220B500602F3500026EF
:10048000F4500122000E02220E500602F350012603
:10049000F450022202BE55EF02F008360036013653
:1004A00002360306D8B475EF02F068EF02F0D88088
:1004B000800E08640030000E002201220222D8A023
:1004C00068EF02F0023201320032034A71EF02F0AB
:1004D0000AAE029E000E77EF02F0010EB8DD77EF54
:1004E00002F0020EA8DD77EF02F0040EB7DD120075
:1004F0004CC004F04DC005F004C002F005C003F08C
:10050000044A052A4EC000F04FC001F04E4A4F2A5F
:1005100000C0E9FF01C0EAFF02C0E1FF03C0E2FF43
:10052000EECFE6FF02C0E9FF03C0EAFFEE5201E0B2
:0C053000E3D74CC000F04DC001F01200F9
:10053C000B800BAEAAEF02F0026A0AAEFF0E026E3F
:0C054C00016E006E0A360232FF0E120033
:0C05580039904CC050F0A2DD3980120038
:10056400025006180E6E086A096A0B6A0350076483
:10057400A5EF03F006500A6E068E028E03500B6E32
:100584000750036E000E0B64F5EF02F00B50075E8C
:10059400D8B496EF03F0070E076464EF03F0075E28
:1005A40000C008F001C000F002C001F0026A074E6A
:1005B40096EF03F0076439EF03F0075E00C008F01C
:1005C40001C000F0016A074E96EF03F0076417EFCD
:1005D40003F0075E00C008F0006A074E96EF03F0D0
:1005E4000764FEEF02F00AC002F005C001F004C087
:1005F40000F0086AC2EF04F0030E076409EF03F089
:10060400075E08380F0B086E074E96EF03F0D8907C
:100614000832074E96EF03F0D8900832074E96EF53
:1006240003F0D890083296EF03F0030E076428EF26
:1006340003F0075E08380F0B086E0038F00B08262D
:1006440000380F0B006E074E96EF03F0D89000327F
:100654000832074E96EF03F0D89000320832074E66
:1006640096EF03F0D8900032083296EF03F0030EB1
:10067400076450EF03F0075E08380F0B086E00386C
:10068400F00B082600380F0B006E0138F00B002623
:1006940001380F0B016E074E96EF03F0D89001322C
:1006A40000320832074E96EF03F0D8900132003240
:1006B4000832074E96EF03F0D89001320032083228
:1006C40096EF03F0030E076481EF03F0075E08382A
:1006D4000F0B086E0038F00B082600380F0B006E65
:1006E4000138F00B002601380F0B016E0238F00BB5
:1006F400012602380F0B026E074E96EF03F0D890D6
:100704000232013200320832074E96EF03F0D890DD
:100714000232013200320832074E96EF03F0D890CD
:100724000232013200320832096A000E0EAE8AEF3C
:1007340004F0081E001E011E021E082A00220122C7
:1007440002228AEF04F00750D8A4ABEF03F0C2EF03
:1007540004F0096A02C00AF0028E068E0750035C98
:10076400076ED8B47DEF04F0070E07644BEF04F076
:10077400075E0450096E0550046E0650056E066A45
:10078400074E7DEF04F0070E076420EF04F0075EC8
:100794000450096E0550046E056A074E7DEF04F09F
:1007A400070E0764FEEF03F0075E0450096E046A47
:1007B400074E7DEF04F0070E0764E5EF03F00AC06F
:1007C40002F0C2EF04F0030E0764F0EF03F0075EDB
:1007D40009380F0B096E074E7DEF04F0D8900932EB
:1007E400074E7DEF04F0D8900932074E7DEF04F0F8
:1007F400D89009327DEF04F0030E07640FEF04F084
:10080400075E09380F0B096E0438F00B092604380B
:100814000F0B046E074E7DEF04F0D89004320932BA
:10082400074E7DEF04F0D89004320932074E7DEF75
:1008340004F0D890043209327DEF04F0030E07640B
:1008440037EF04F0075E09380F0B096E0438F00B1C
:10085400092604380F0B046E0538F00B04260538FE
:100864000F0B056E074E7DEF04F0D890053204326D
:100874000932074E7DEF04F0D89005320432093274
:10088400074E7DEF04F0D8900532043209327DEF33
:1008940004F0030E076468EF04F0075E09380F0BD9
:1008A400096E0438F00B092604380F0B046E053862
:1008B400F00B042605380F0B056E0638F00B0526E1
:1008C40006380F0B066E074E7DEF04F0D890063203
:1008D400053204320932074E7DEF04F0D890063217
:1008E400053204320932074E7DEF04F0D890063207
:1008F400053204320932086A000E0EAE8AEF04F0A3
:10090400091E041E051E061E092A042205220622AB
:1009140009500826045000220550012206500222E4
:100924000EBEA1EF04F0D8A0B0EF04F00232013201
:1009340000320832033EB0EF04F0BCEF04F0D8B04C
:10094400B6EF04F0000E081E001E011E021E082A47
:100954000022012202220A7EB6EF04F0010E0C6E80
:1009640090EC00F0C4EF04F0020E0C6E90EC00F07A
:10097400C4EF04F0040E0C6E1BEC00F0C4EF04F0A2
:06098400000E0C6E1200D3
:10098A000D6A086A0050D8B4000C04180A6E0ABE30
:10099A000D1E0B6A04AE02D0041E042A00AE02D059
:1009AA00001E002A005004100A6E0ABE1FD004500E
:1009BA00085E003600340836045008260036060E53
:1009CA000C6E00340836045000B0085E00A00826F9
:1009DA0000360C2EF6D700A008260BB015D00DAEA7
:1009EA00000C001E002A081E082A000C04AE09D0BA
:1009FA0000BE04D00050086E006AF1D7006A002ACF
:100A0A00000C001E0B2AD3D7082A0450085CD8A46D
:0E0A1A00E6D7086A002A00AEE2D7FF0C1200F1
:100A28000C6A0E6A0250D8A42DEF05F001C002F03E
:100A380000C001F0006A0E860250D8A42DEF05F020
:100A480001C002F0016A0E960E880250D8B43FEF3A
:100A580005F00E50035ED8A4D8A045EF05F0D89055
:100A680002BE4BEF05F0003601360236032E34EF96
:100A780005F045EF05F0010E0C6E27EC00F04FEF86
:100A880005F0020E0C6E2EEC00F04FEF05F0040E90
:080A98000C6E3BEC00F01200B3
:100AA0000050086E0150006E016A026A036A0B6A08
:100AB0000C6A960E036E0A6A00C001F008C000F0CE
:080AC000086A026AB1DF1200AE
:100AC8000900F5CFE6FF0006FBE10106F9E1120097
:100AD800959695949598959A959C959E83968394CA
:100AE800839E839C839A83983FEC00F03FEC00F050
:100AF8003FEC00F0838A838883864AEC00F0839673
:100B08003FEC00F083864AEC00F083963FEC00F05F
:100B180083864AEC00F083963FEC00F08398838646
:100B28004AEC00F083963FEC00F083864AEC00F034
:100B38008396839A838E83864AEC00F083963FECF3
:100B480000F0839E838883864AEC00F0839683981E
:100B580083864AEC00F083963FEC00F083864AECEB
:100B680000F08396838883864AEC00F083963FECF6
:100B780000F0839883864AEC00F08396838E838CFA
:100B8800838A838883864AEC00F083963FEC00F0E2
:040B9800398012008E
:100B9C000B6A0350D8B414EF06F002500A6E028EA2
:100BAC008E0E035E03AE18EF06F0036C080E035CAA
:100BBC00D8A0F3EF05F0036E013602C001F0026A13
:100BCC00080E035CD8A0F3EF05F0036E0136016A42
:100BDC000350D8A4D890FDEF05F00350D8B4FDEF26
:100BEC0005F0D89002320132032EF7EF05F00BBC62
:100BFC0001A00AEF06F0D8A00AEF06F0012AD8B43B
:100C0C00022A02BE27EF06F00AAE2CEF06F0021EF7
:100C1C00011E012AD8B4022A2CEF06F0026A016ADE
:100C2C002CEF06F00B800BAE30EF06F0026A0AAE2A
:100C3C0030EF06F0FF0E026E016E0A36023230EF14
:100C4C0006F0010E0C6E74DC32EF06F0000E0C6E2A
:100C5C0032EF06F0FF0E0C6E0150006E0250016E6A
:020C6C00120074
:100C6E000FD0800E3E6E19D0C00E3E6E16D0940E72
:100C7E003E6E13D0D40E3E6E10D0800E3E6E0DD052
:100C8E003E50010AEEE03E50020AEEE03E50030AEC
:100C9E00EEE03E50040AEEE0F0D73F04006E3E5008
:100CAE00002600C03EF000C050F052EC00F039902B
:100CBE00426A42504024E96E000E4120EA6EEE5226
:100CCE000BE042504024E96E000E4120EA6EEECF5A
:0C0CDE004CF03BDC422AEDD739801200BC
:100CEA004A6A4B6A3EC046F03FC047F040C048F0EF
:100CFA0041C049F04950FF0A08E14850FF0A05E19E
:100D0A004750FF0A02E14650FF0A0DE142C04CF08B
:100D1A0043C04DF0260E4E6E000E4F6E78EC02F078
:100D2A00030E006EEFD1010E446E48AE0ED0800E57
:100D3A004818006E00C048F0442A42C0E1FF43C090
:100D4A00E2FF2D0EE66E424A432A000E006E491853
:100D5A0008E10050481805E10050471802E14650E2
:100D6A00000A0CE142C04CF043C04DF02A0E4E6E10
:100D7A00000E4F6E78EC02F0006AC4D14950FF0AA7
:100D8A0008E14850000A05E14750000A02E14650CE
:100D9A00000A0DE142C04CF043C04DF0220E4E6EE7
:100DAA00000E4F6E78EC02F044C000F0ABD1000E9A
:100DBA00046E000E056E000E066E7F0E076E46C0AC
:100DCA0000F047C001F048C002F049C003F081ECCE
:100DDA0001F0010ED8B0000E006E00521CE046C0B1
:100DEA0000F047C001F048C002F049C003F0000E0D
:100DFA00046E000E056E200E066E820E076EE8EC7B
:100E0A0001F000C046F001C047F002C048F003C03C
:100E1A0049F04B06CCD7000E046E000E056E200E6C
:100E2A00066E820E076E46C000F047C001F048C049
:100E3A0002F049C003F081EC01F0000ED8B0010EB7
:100E4A00006E00521CE046C000F047C001F048C0E6
:100E5A0002F049C003F0CD0E046ECC0E056E4C0EA6
:100E6A00066E7B0E076EE8EC01F000C046F001C08A
:100E7A0047F002C048F003C049F04B2ACCD7FF0E16
:100E8A004614086EFF0E4714096E7F0E48140A6E48
:100E9A00000E49140B6E08C004F009C005F00AC020
:100EAA0006F00BC007F004360490053606360736FE
:100EBA00000E4614006E000E4714016E000E481410
:100ECA00026EFF0E4914036E00C046F001C047F0DF
:100EDA0002C048F003C049F004504610006E0550A5
:100EEA004710016E06504810026E07504910036EF3
:100EFA0000C046F001C047F002C048F003C049F004
:100F0A007F0E495C006E00C045F0010E496E00C0BC
:100F1A0004F046C000F047C001F048C002F049C0E2
:100F2A0003F0045007E0003600900136023603361B
:100F3A00FF0FF8D700C046F001C047F002C048F0E2
:100F4A0003C049F042C0E1FF43C0E2FF4950300FFD
:100F5A00E66E424A432A800E4B18006E800E010A42
:100F6A00005C08E3800E060A006E800E4B18005CD7
:100F7A0001E30AD042C0E1FF43C0E2FF2E0EE66E53
:100F8A00424A432A010E4A6E060E456E4550000A31
:100F9A0054E0496A46C000F047C001F048C002F078
:100FAA0049C003F000360090013602360336003697
:100FBA000090013602360336465000264750012279
:100FCA00485002224950032200C046F001C047F0AF
:100FDA0002C048F003C049F046C000F047C001F023
:100FEA0048C002F049C003F00036009001360236CC
:100FFA00033600C046F001C047F002C048F003C003
:10100A0049F042C0E1FF43C0E2FF4950300FE66EAB
:10101A00424A432A4A50000A0EE14B064B50000A44
:10102A000AE142C0E1FF43C0E2FF2E0EE66E424AE9
:10103A00432A010E4A6E4506A9D7FF0E4224E96EDD
:10104A00FF0E4320EA6EEE50300A05E1010E425EC1
:10105A00000E435AF2D7FF0E4224E96EFF0E4320D8
:10106A00EA6EEE502E0A04E1010E425E000E435A69
:10107A004B50000A41E042C0E1FF43C0E2FF650E67
:10108A00E66E424A432A800E4B18006E800E000A12
:10109A00005C0BE242C0E1FF43C0E2FF2D0EE66EA8
:1010AA00424A432A4B5000084B6E4BC045F0800E13
:1010BA00090A006E800E4B18005C0EE20A0E046EDE
:1010CA0045C000F05DDC42C0E1FF43C0E2FF0050D2
:1010DA00300FE66E424A432A0A0E046E45C000F0FB
:1010EA004FDC08C000F042C0E1FF43C0E2FF0050FD
:1010FA00300FE66E424A432A42C0E1FF43C0E2FF94
:06110A00E66A006A120013
:1011100000C008F00150006E016A026A036A0B6A9F
:101120000C6A016A026A036A960E036E0A6A00AECE
:10113000A0EF08F0081E001E082AD8B4002A0A8E64
:1011400000C001F008C000F0086A026A6DDC1200FD
:08115000067EB2EC02F0120071
:1011580043EC09F0C40EC16E9286956A590EC26EB0
:10116800B7DC010E506E52EC00F09E9C9D8CF28C08
:10117800F28EC284010E506E52EC00F020C000F0D6
:1011880021C001F089DC0A0E046E280E056E200EBF
:10119800066E770E076EE8EC01F000C03AF001C069
:1011A8003BF002C03CF003C03DF03AC01CF03BC02D
:1011B8001DF03CC01EF03DC01FF03AC000F03BC01F
:1011C80001F03CC002F03DC003F0E4DC00C018F0C0
:1011D80001C019F099DF00C004F001C005F002C099
:1011E80006F003C007F03AC000F03BC001F03CC075
:1011F80002F03DC003F0A8DF000E046E000E056E7D
:10120800480E066E850E076EE8EC01F0C3DC00C0E0
:101218001AF001C01BF03AC03EF03BC03FF03CC0A2
:1012280040F03DC041F02C0E426E000E436E59DD79
:10123800010E3E6E010E3F6E2C0E406E000E416E8A
:1012480012DD560E4C6EACEC02F00B0E0B6E260E39
:101258000C6E5D0E0D6E0D2EFED70C2EFCD70B2ED0
:0A126800FAD70000000085D7FFD779
:1012860010EE18F0140E006E010E016E720EF66E60
:0E129600120EF76E000EF86E64EC05F01200FA
:0212720000007A
:02127400000078
:041276000000000074
:02127A00000072
:04127C00494E460091
:041280004E614E006D
:02128400300038
:020000040030CA
:0D000100220F0EFF0181FF0FC00FE00F4026
:00000001FF
