:0400000020EF08F0F5
:1000080000C017F001C016F002C015F0F2A406D027
:10001800D76A22C0D6FF8470C284F2949EAC0AD0FC
:10002800C4CF01F0006AC3500024206E000E0120E6
:10003800216E9E9C17C000F016C001F015C002F09A
:020048001100A5
:10004A000B820BAE2FEF00F00368026801680068AC
:08005A000A360232FF0E12000B
:0E006200026A016A006A086A036A000E120050
:100070000B840BAE43EF00F0010E036E026A016ABF
:0A008000006A0A360232FF0E120079
:08008A000AAE029E000E1200F6
:0600920000000000120056
:100098000F0E0C6E470E0D6E0D2EFED70C2EFCD7D4
:0600A80000000000120040
:0A00AE00210E0D6E0D2EFED712007C
:1000B8004DBE02D0839E01D0838E4DBC02D0839C5E
:1000C80001D0838C4DBA02D0839A01D0838A4DB86F
:1000D80002D0839801D083883AB002D0838401D0BB
:1000E80083948386D2DF83964DB602D0839E01D057
:1000F800838E4DB402D0839C01D0838C4DB202D044
:10010800839A01D0838A4DB002D0839801D0838826
:100118003AB002D0838401D083948386B6DF839675
:0C0128003AA002D0B5DF01D0BEDF12000B
:100134000CB0DCEF00F00CA282EF01F00E6A000EAE
:100144000264F3EF00F0F00E0214D8A4BEEF00F046
:10015400023A01380F0B02260138F00B016E003809
:100164000F0B01260038F00B006E08380F0B002629
:100174000838F00B086E0E84D89002BED7EF00F05A
:1001840008360036013602360E2A02BED7EF00F0DA
:1001940008360036013602360E2A02BED7EF00F0CA
:1001A40008360036013602360E2A0E50036478EF04
:1001B40001F0035E0BBC08AE7DEF01F0D880800E29
:1001C40008640030000E002201220222D8A07DEF34
:1001D40001F0023201320032034A82EF01F07DEF76
:1001E40001F001C002F000C001F008C000F0086A8C
:1001F400000E0E8602642AEF01F0F00E0214D8A459
:1002040012EF01F0023A01380F0B02260138F00B0D
:10021400016E00380F0B01260038F00B006E0E84BF
:10022400D89002BED7EF00F00036013602360E2A0F
:1002340002BED7EF00F00036013602360E2A02BEA7
:10024400D7EF00F00036013602360E2AD7EF00F061
:1002540001C002F000C001F0006A000E0E960E8884
:10026400026457EF01F0F00E0214D8A442EF01F03B
:10027400023A01380F0B02260138F00B016E0E848E
:10028400D89002BED7EF00F0013602360E2A02BE25
:10029400D7EF00F0013602360E2A02BED7EF00F087
:1002A400013602360E2AD7EF00F001C002F0016ACF
:1002B400000E0E86026487EF01F0F00E0214D8A43B
:1002C40066EF01F0023A0E84D89002BED7EF00F038
:1002D40002360E2A02BED7EF00F002360E2A02BE04
:1002E400D7EF00F002360E2AD7EF00F0010E0C6EA5
:1002F400BDDE8AEF01F0020E0C6EC5DE8AEF01F05E
:10030400040E0C6EA0DE8AEF01F0080E0C6EA7DE60
:020314001200D5
:1003160049C004F04AC005F004C002F005C003F06D
:10032600044A052A4BC000F04CC001F04B4A4C2A47
:1003360000C0E9FF01C0EAFF02C0E1FF03C0E2FF1F
:10034600EECFE6FF02C0E9FF03C0EAFFEE5201E08E
:0C035600E3D749C000F04AC001F01200DB
:100362000A6A0350D8A40A800750D8A40A820A5005
:10037200D8B414EF02F0030AD8B4CDEF01F00AB0FA
:10038200C8EF01F006AE12EF02F010EF02F002AE7B
:1003920010EF02F012EF02F00250800B0A6E029E82
:1003A2000650800B069E0A18D8B4DEEF01F00A5000
:1003B200D8B410EF02F012EF02F00750035CD8B489
:1003C200E8EF01F0D8A004EF02F00AEF02F00650C5
:1003D200025CD8B4F2EF01F0D8A004EF02F00AEF09
:1003E20002F00550015CD8B4FCEF01F0D8A004EF94
:1003F20002F00AEF02F00450005CD8B414EF02F0ED
:10040200D8B00AEF02F00A52D8B412EF02F010EF9D
:1004120002F00A52D8B410EF02F012EF02F0D880C4
:0E0422001200D8901200D880D8841200120068
:100430000D6A086A0050D8B4000C04180A6E0ABE8F
:100440000D1E0B6A04AE02D0041E042A00AE02D0B8
:10045000001E002A005004100A6E0ABE1FD004506D
:10046000085E003600340836045008260036060EB2
:100470000C6E00340836045000B0085E00A0082658
:1004800000360C2EF6D700A008260BB015D00DAE06
:10049000000C001E002A081E082A000C04AE09D019
:1004A00000BE04D00050086E006AF1D7006A002A2E
:1004B000000C001E0B2AD3D7082A0450085CD8A4CD
:0E04C000E6D7086A002A00AEE2D7FF0C120051
:0C04CE003A9049C04DF0F1DD3A80120078
:1004DA000C6A0E6A0250D8A486EF02F001C002F03C
:1004EA0000C001F0006A0E860250D8A486EF02F01E
:1004FA0001C002F0016A0E960E880250D8B498EF35
:10050A0002F00E50035ED8A4D8A09DEF02F0D89056
:10051A0002BEA2EF02F0003601360236032E8DEF3C
:10052A0002F09DEF02F0010E0C6E96DDA5EF02F0CF
:10053A00020E0C6E98DDA5EF02F0040E0C6EA0DD23
:02054A0012009D
:10054C00025006180E6E086A096A0B6A035007649B
:10055C0099EF03F006500A6E068E028E03500B6E56
:10056C000750036E000E0B64E9EF02F00B50075EB0
:10057C00D8B48AEF03F0070E076458EF03F0075E58
:10058C0000C008F001C000F002C001F0026A074E82
:10059C008AEF03F007642DEF03F0075E00C008F04C
:1005AC0001C000F0016A074E8AEF03F007640BEFFD
:1005BC0003F0075E00C008F0006A074E8AEF03F0F4
:1005CC000764F2EF02F00AC002F005C001F004C0AB
:1005DC0000F0086AB6EF04F0030E0764FDEF02F0BA
:1005EC00075E08380F0B086E074E8AEF03F0D890A1
:1005FC000832074E8AEF03F0D8900832074E8AEF84
:10060C0003F0D89008328AEF03F0030E07641CEF56
:10061C0003F0075E08380F0B086E0038F00B082645
:10062C0000380F0B006E074E8AEF03F0D8900032A3
:10063C000832074E8AEF03F0D89000320832074E8A
:10064C008AEF03F0D890003208328AEF03F0030EE1
:10065C00076444EF03F0075E08380F0B086E003890
:10066C00F00B082600380F0B006E0138F00B00263B
:10067C0001380F0B016E074E8AEF03F0D890013250
:10068C0000320832074E8AEF03F0D8900132003264
:10069C000832074E8AEF03F0D8900132003208324C
:1006AC008AEF03F0030E076475EF03F0075E08385A
:1006BC000F0B086E0038F00B082600380F0B006E7D
:1006CC000138F00B002601380F0B016E0238F00BCD
:1006DC00012602380F0B026E074E8AEF03F0D890FA
:1006EC000232013200320832074E8AEF03F0D89002
:1006FC000232013200320832074E8AEF03F0D890F2
:10070C000232013200320832096A000E0EAE7EEF60
:10071C0004F0081E001E011E021E082A00220122DF
:10072C0002227EEF04F00750D8A49FEF03F0B6EF3F
:10073C0004F0096A02C00AF0028E068E0750035CB0
:10074C00076ED8B471EF04F0070E07643FEF04F0A6
:10075C00075E0450096E0550046E0650056E066A5D
:10076C00074E71EF04F0070E076414EF04F0075EF8
:10077C000450096E0550046E056A074E71EF04F0C3
:10078C00070E0764F2EF03F0075E0450096E046A6B
:10079C00074E71EF04F0070E0764D9EF03F00AC09F
:1007AC0002F0B6EF04F0030E0764E4EF03F0075E0B
:1007BC0009380F0B096E074E71EF04F0D89009320F
:1007CC00074E71EF04F0D8900932074E71EF04F028
:1007DC00D890093271EF04F0030E076403EF04F0B4
:1007EC00075E09380F0B096E0438F00B0926043824
:1007FC000F0B046E074E71EF04F0D89004320932DF
:10080C00074E71EF04F0D89004320932074E71EFA5
:10081C0004F0D8900432093271EF04F0030E07642F
:10082C002BEF04F0075E09380F0B096E0438F00B40
:10083C00092604380F0B046E0538F00B0426053816
:10084C000F0B056E074E71EF04F0D8900532043291
:10085C000932074E71EF04F0D89005320432093298
:10086C00074E71EF04F0D89005320432093271EF63
:10087C0004F0030E07645CEF04F0075E09380F0BFD
:10088C00096E0438F00B092604380F0B046E05387A
:10089C00F00B042605380F0B056E0638F00B0526F9
:1008AC0006380F0B066E074E71EF04F0D890063227
:1008BC00053204320932074E71EF04F0D89006323B
:1008CC00053204320932074E71EF04F0D89006322B
:1008DC00053204320932086A000E0EAE7EEF04F0C7
:1008EC00091E041E051E061E092A042205220622C4
:1008FC0009500826045000220550012206500222FD
:10090C000EBE95EF04F0D8A0A4EF04F00232013231
:10091C0000320832033EA4EF04F0B0EF04F0D8B07C
:10092C00AAEF04F0000E081E001E011E021E082A6B
:10093C000022012202220A7EAAEF04F0010E0C6EA4
:10094C009AEC00F0B8EF04F0020E0C6E9AEC00F08A
:10095C00B8EF04F0040E0C6E25EC00F0B8EF04F0C8
:06096C00000E0C6E1200EB
:10097200086A096A000E076203643EEF05F002503E
:1009820006180A6E075003267E0ED8A0CFEF04F099
:10099200035ED8B043EF05F0D3EF04F0035ED8A0B6
:1009A20048EF05F0028E068E02C00EF001C00BF079
:1009B20000C00DF000500402F4CF0CF0015005020B
:1009C200F4CF00F0F3CF08F00402F3500C26F450F9
:1009D2000822000E00220D500502F3500C26F4509E
:1009E2000822000E002202500402F3500826F4509E
:1009F200002202500502016A000E0122F350002675
:100A0200F45001220D500602F3500826F450002241
:100A1200026A000E012202220B500602F350002647
:100A2200F4500122000E02220E500602F35001265B
:100A3200F450022202BE26EF05F0083600360136D7
:100A420002360306D8B448EF05F039EF05F0D88036
:100A5200800E08640030000E002201220222D8A07B
:100A620039EF05F0023201320032034A43EF05F05A
:100A72000AAE029E000E4BEF05F0010E31EC00F0C3
:100A82004BEF05F0020E25EC00F04BEF05F0040EE3
:060A920038EC00F0120038
:100A98000050086E0150006E016A026A036A0B6A10
:100AA8000C6A960E036E0A6A00C001F008C000F0D6
:080AB800086A026A0EDD12005B
:100AC000959695949598959A959C959E83968394E2
:100AD000839E839C839A83984CEC00F04CEC00F04E
:100AE0004CEC00F0838A8388838649EC00F083967F
:100AF0004CEC00F0838649EC00F083964CEC00F05F
:100B0000838649EC00F083964CEC00F08398838652
:100B100049EC00F083964CEC00F0838649EC00F041
:100B20008396839A838E838649EC00F083964CECFF
:100B300000F0839E8388838649EC00F08396839837
:100B4000838649EC00F083964CEC00F0838649ECF8
:100B500000F083968388838649EC00F083964CEC02
:100B600000F08398838649EC00F08396838E838C13
:100B7000838A8388838649EC00F083964CEC00F0EE
:040B80003A801200A5
:100B84000900F5CFE6FF0006FBE10106F9E11200DA
:100B9400476A486A3BC043F03CC044F03DC045F05E
:100BA4003EC046F04650FF0A08E14550FF0A05E101
:100BB4004450FF0A02E14350FF0A0DE13FC049F0EF
:100BC40040C04AF0230E4B6E000E4C6E8BEC01F0CD
:100BD400030E006EEFD1010E416E45AE0ED0800EB5
:100BE4004518006E00C045F0412A3FC0E1FF40C0F7
:100BF400E2FF2D0EE66E3F4A402A000E006E4618B4
:100C040008E10050451805E10050441802E1435042
:100C1400000A0CE13FC049F040C04AF0180E4B6E88
:100C2400000E4C6E8BEC01F0006AC4D14650FF0AF2
:100C340008E14550000A05E14450000A02E143502E
:100C4400000A0DE13FC049F040C04AF01A0E4B6E55
:100C5400000E4C6E8BEC01F041C000F0ABD1000EE5
:100C6400046E000E056E000E066E7F0E076E43C006
:100C740000F044C001F045C002F046C003F0B1ECFE
:100C840001F0010ED8B0000E006E00521BE043C00C
:100C940000F044C001F045C002F046C003F0000E6D
:100CA400046E000E056E200E066E820E076E5FDE69
:100CB40000C043F001C044F002C045F003C046F058
:100CC4004806CDD7000E046E000E056E200E066E8B
:100CD400820E076E43C000F044C001F045C002F02C
:100CE40046C003F0B1EC01F0000ED8B0010E006E66
:100CF40000521BE043C000F044C001F045C002F0C4
:100D040046C003F0CD0E046ECC0E056E4C0E066E7E
:100D14007B0E076E2CDE00C043F001C044F002C01D
:100D240045F003C046F0482ACDD7FF0E4314086EA1
:100D3400FF0E4414096E7F0E45140A6E000E46140D
:100D44000B6E08C004F009C005F00AC006F00BC021
:100D540007F004360490053606360736000E4314B1
:100D6400006E000E4414016E000E4514026EFF0E58
:100D74004614036E00C043F001C044F002C045F0C5
:100D840003C046F004504310006E05504410016E39
:100D940006504510026E07504610036E00C043F023
:100DA40001C044F002C045F003C046F07F0E465C2B
:100DB400006E00C042F0010E466E00C004F043C055
:100DC40000F044C001F045C002F046C003F00450F6
:100DD40007E000360090013602360336FF0FF8D7DD
:100DE40000C043F001C044F002C045F003C046F027
:100DF4003FC0E1FF40C0E2FF4650300FE66E3F4A7D
:100E0400402A800E4818006E800E010A005C08E338
:100E1400800E060A006E800E4818005C01E30AD0BA
:100E24003FC0E1FF40C0E2FF2E0EE66E3F4A402A7B
:100E3400010E476E060E426E4250000A54E0466AA6
:100E440043C000F044C001F045C002F046C003F0C6
:100E54000036009001360236033600360090013623
:100E640002360336435000264450012245500222E4
:100E74004650032200C043F001C044F002C045F0D4
:100E840003C046F043C000F044C001F045C002F086
:100E940046C003F00036009001360236033600C027
:100EA40043F001C044F002C045F003C046F03FC027
:100EB400E1FF40C0E2FF4650300FE66E3F4A402A51
:100EC4004750000A0EE148064850000A0AE13FC0B4
:100ED400E1FF40C0E2FF2E0EE66E3F4A402A010EBB
:100EE400476E4206A9D7FF0E3F24E96EFF0E40204D
:100EF400EA6EEE50300A05E1010E3F5E000E405AE4
:100F0400F2D7FF0E3F24E96EFF0E4020EA6EEE504A
:100F14002E0A04E1010E3F5E000E405A4850000ABA
:100F240043E03FC0E1FF40C0E2FF650EE66E3F4A8A
:100F3400402A800E4818006E800E000A005C0BE206
:100F44003FC0E1FF40C0E2FF2D0EE66E3F4A402A5B
:100F540048500008486E48C042F0800E090A006EEE
:100F6400800E4818005C0FE20A0E046E42C000F0C6
:100F740018EC02F03FC0E1FF40C0E2FF0050300F28
:100F8400E66E3F4A402A0A0E046E42C000F018EC96
:100F940002F008C000F03FC0E1FF40C0E2FF005093
:100FA400300FE66E3F4A402A3FC0E1FF40C0E2FFF7
:060FB400E66A006A12006B
:080FBA00067EA6EC02F0120015
:100FC2000FD0800E3B6E19D0C00E3B6E16D0940E21
:100FD2003B6E13D0D40E3B6E10D0800E3B6E0DD004
:100FE2003B50010AEEE03B50020AEEE03B50030A9E
:100FF200EEE03B50040AEEE0F0D73C04006E3B50BA
:10100200002600C03BF000C04DF05CEC00F03A90CE
:101012003F6A3F503D24E96E000E3E20EA6EEE52DA
:101022000CE03F503D24E96E000E3E20EA6EEECF0A
:0E10320049F067EC02F03F2AECD73A8012003A
:1010400099EC08F0C40EC16E9286956A9690590E7E
:10105000C26E36DD010E4D6E5CEC00F0850ED56E75
:10106000F294F28AD76A22C0D6FF9E9C9D8CF29C95
:10107000F28E21501F1802E11E5020184EE0010E82
:101080004D6E5CEC00F020C000F021C001F004DDEA
:101090000A0E046E280E056E200E066E770E076E81
:1010A00068DC000E046E000E056E480E066E850E9E
:1010B000076E5FDC000E046E000E056E480E066EB5
:1010C000840E076E7ADF00C027F001C028F002C04E
:1010D00029F003C02AF000C03BF001C03CF002C080
:1010E0003DF003C03EF02B0E3F6E000E406E52DD11
:1010F000010E3B6E010E3C6E2B0E3D6E000E3E6EE1
:1011000060DFDF0E496E67EC02F0430E496E67EC5C
:0E11100002F020C01EF021C01FF0ABD7FFD7A9
:1011320010EE18F0130E006E010E016E1E0EF66E0A
:0E114200110EF76E000EF86EC2EC05F01200F2
:02111E0030009F
:04112000494E4600EE
:021124000F2793
:021126000000C7
:011128008442
:041129004E614E00C5
:04112D0000000000BE
:020000040030CA
:0D000100220F0EFF0181FF0FC00FE00F4026
:00000001FF
