:040000002FEF08F0E6
:1000080000C017F001C016F002C015F0F2A20DD022
:10001800234A242A000E006E2450005C02E123507B
:10002800020802E2236A246AF292F2A406D0D76A8E
:100038001EC0D6FF8470C284F2949EAC0AD0C4CF8E
:1000480001F0006AC35000241F6E000E0120206ECC
:100058009E9C17C000F016C001F015C002F01100F8
:100068000B820BAE3EEF00F003680268016800687F
:080078000A360232FF0E1200ED
:0E008000026A016A006A086A036A000E120032
:10008E000B840BAE52EF00F0010E036E026A016A92
:0A009E00006A0A360232FF0E12005B
:0800A8000AAE029E000E1200D8
:0600B00000000000120038
:1000B6000F0E0C6E470E0D6E0D2EFED70C2EFCD7B6
:0600C60000000000120022
:0A00CC00210E0D6E0D2EFED712005E
:1000D60055BE02D0839E01D0838E55BC02D0839C30
:1000E60001D0838C55BA02D0839A01D0838A55B841
:1000F60002D0839801D0838833B002D0838401D0A4
:1001060083948386D2DF839655B602D0839E01D030
:10011600838E55B402D0839C01D0838C55B202D015
:10012600839A01D0838A55B002D0839801D0838800
:1001360033B002D0838401D083948386B6DF83965E
:0C01460033A002D0B5DF01D0BEDF1200F4
:100152000CB0EBEF00F00CA291EF01F00E6A000E72
:10016200026402EF01F0F00E0214D8A4CDEF00F009
:10017200023A01380F0B02260138F00B016E0038EB
:100182000F0B01260038F00B006E08380F0B00260B
:100192000838F00B086E0E84D89002BEE6EF00F02D
:1001A20008360036013602360E2A02BEE6EF00F0AD
:1001B20008360036013602360E2A02BEE6EF00F09D
:1001C20008360036013602360E2A0E50036487EFD7
:1001D20001F0035E0BBC08AE8CEF01F0D880800EFC
:1001E20008640030000E002201220222D8A08CEF07
:1001F20001F0023201320032034A91EF01F08CEF3A
:1002020001F001C002F000C001F008C000F0086A6D
:10021200000E0E86026439EF01F0F00E0214D8A42B
:1002220021EF01F0023A01380F0B02260138F00BE0
:10023200016E00380F0B01260038F00B006E0E84A1
:10024200D89002BEE6EF00F00036013602360E2AE2
:1002520002BEE6EF00F00036013602360E2A02BE7A
:10026200E6EF00F00036013602360E2AE6EF00F025
:1002720001C002F000C001F0006A000E0E960E8866
:10028200026466EF01F0F00E0214D8A451EF01F0FF
:10029200023A01380F0B02260138F00B016E0E8470
:1002A200D89002BEE6EF00F0013602360E2A02BEF8
:1002B200E6EF00F0013602360E2A02BEE6EF00F04B
:1002C200013602360E2AE6EF00F001C002F0016AA2
:1002D200000E0E86026496EF01F0F00E0214D8A40E
:1002E20075EF01F0023A0E84D89002BEE6EF00F0FC
:1002F20002360E2A02BEE6EF00F002360E2A02BED7
:10030200E6EF00F002360E2AE6EF00F0010E0C6E68
:10031200BDDE99EF01F0020E0C6EC5DE99EF01F021
:10032200040E0C6EA0DE99EF01F0080E0C6EA7DE33
:020332001200B7
:1003340051C004F052C005F004C002F005C003F03F
:10034400044A052A53C000F054C001F0534A542A09
:1003540000C0E9FF01C0EAFF02C0E1FF03C0E2FF01
:10036400EECFE6FF02C0E9FF03C0EAFFEE5201E070
:0C037400E3D751C000F052C001F01200AD
:100380000A6A0350D8A40A800750D8A40A820A50E7
:10039000D8B423EF02F0030AD8B4DCEF01F00AB0BE
:1003A000D7EF01F006AE21EF02F01FEF02F002AE30
:1003B0001FEF02F021EF02F00250800B0A6E029E46
:1003C0000650800B069E0A18D8B4EDEF01F00A50D3
:1003D000D8B41FEF02F021EF02F00750035CD8B44D
:1003E000F7EF01F0D8A013EF02F019EF02F006507A
:1003F000025CD8B401EF02F0D8A013EF02F019EFBD
:1004000002F00550015CD8B40BEF02F0D8A013EF56
:1004100002F019EF02F00450005CD8B423EF02F0B0
:10042000D8B019EF02F00A52D8B421EF02F01FEF52
:1004300002F00A52D8B41FEF02F021EF02F0D88088
:0E0440001200D8901200D880D884120012004A
:10044E000D6A086A0050D8B4000C04180A6E0ABE71
:10045E000D1E0B6A04AE02D0041E042A00AE02D09A
:10046E00001E002A005004100A6E0ABE1FD004504F
:10047E00085E003600340836045008260036060E94
:10048E000C6E00340836045000B0085E00A008263A
:10049E0000360C2EF6D700A008260BB015D00DAEE8
:1004AE00000C001E002A081E082A000C04AE09D0FB
:1004BE0000BE04D00050086E006AF1D7006A002A10
:1004CE00000C001E0B2AD3D7082A0450085CD8A4AF
:0E04DE00E6D7086A002A00AEE2D7FF0C120033
:0C04EC00339051C055F0F1DD3380120058
:1004F8000C6A0E6A0250D8A495EF02F001C002F00F
:1005080000C001F0006A0E860250D8A495EF02F0F0
:1005180001C002F0016A0E960E880250D8B4A7EF07
:1005280002F00E50035ED8A4D8A0ACEF02F0D89029
:1005380002BEB1EF02F0003601360236032E9CEF00
:1005480002F0ACEF02F0010E0C6E96DDB4EF02F093
:10055800020E0C6E98DDB4EF02F0040E0C6EA0DDF6
:0205680012007F
:10056A00025006180E6E086A096A0B6A035007647D
:10057A00A8EF03F006500A6E068E028E03500B6E29
:10058A000750036E000E0B64F8EF02F00B50075E83
:10059A00D8B499EF03F0070E076467EF03F0075E1C
:1005AA0000C008F001C000F002C001F0026A074E64
:1005BA0099EF03F007643CEF03F0075E00C008F010
:1005CA0001C000F0016A074E99EF03F007641AEFC1
:1005DA0003F0075E00C008F0006A074E99EF03F0C7
:1005EA00076401EF03F00AC002F005C001F004C07D
:1005FA0000F0086AC5EF04F0030E07640CEF03F07D
:10060A00075E08380F0B086E074E99EF03F0D89073
:10061A000832074E99EF03F0D8900832074E99EF47
:10062A0003F0D890083299EF03F0030E07642BEF1A
:10063A0003F0075E08380F0B086E0038F00B082627
:10064A0000380F0B006E074E99EF03F0D890003276
:10065A000832074E99EF03F0D89000320832074E5D
:10066A0099EF03F0D8900032083299EF03F0030EA5
:10067A00076453EF03F0075E08380F0B086E003863
:10068A00F00B082600380F0B006E0138F00B00261D
:10069A0001380F0B016E074E99EF03F0D890013223
:1006AA0000320832074E99EF03F0D8900132003237
:1006BA000832074E99EF03F0D8900132003208321F
:1006CA0099EF03F0030E076484EF03F0075E08381E
:1006DA000F0B086E0038F00B082600380F0B006E5F
:1006EA000138F00B002601380F0B016E0238F00BAF
:1006FA00012602380F0B026E074E99EF03F0D890CD
:10070A000232013200320832074E99EF03F0D890D4
:10071A000232013200320832074E99EF03F0D890C4
:10072A000232013200320832096A000E0EAE8DEF33
:10073A0004F0081E001E011E021E082A00220122C1
:10074A0002228DEF04F00750D8A4AEEF03F0C5EFF4
:10075A0004F0096A02C00AF0028E068E0750035C92
:10076A00076ED8B480EF04F0070E07644EEF04F06A
:10077A00075E0450096E0550046E0650056E066A3F
:10078A00074E80EF04F0070E076423EF04F0075EBC
:10079A000450096E0550046E056A074E80EF04F096
:1007AA00070E076401EF04F0075E0450096E046A3D
:1007BA00074E80EF04F0070E0764E8EF03F00AC063
:1007CA0002F0C5EF04F0030E0764F3EF03F0075ECF
:1007DA0009380F0B096E074E80EF04F0D8900932E2
:1007EA00074E80EF04F0D8900932074E80EF04F0EC
:1007FA00D890093280EF04F0030E076412EF04F078
:10080A00075E09380F0B096E0438F00B0926043805
:10081A000F0B046E074E80EF04F0D89004320932B1
:10082A00074E80EF04F0D89004320932074E80EF69
:10083A0004F0D8900432093280EF04F0030E076402
:10084A003AEF04F0075E09380F0B096E0438F00B13
:10085A00092604380F0B046E0538F00B04260538F8
:10086A000F0B056E074E80EF04F0D8900532043264
:10087A000932074E80EF04F0D8900532043209326B
:10088A00074E80EF04F0D89005320432093280EF27
:10089A0004F0030E07646BEF04F0075E09380F0BD0
:1008AA00096E0438F00B092604380F0B046E05385C
:1008BA00F00B042605380F0B056E0638F00B0526DB
:1008CA0006380F0B066E074E80EF04F0D8900632FA
:1008DA00053204320932074E80EF04F0D89006320E
:1008EA00053204320932074E80EF04F0D8900632FE
:1008FA00053204320932086A000E0EAE8DEF04F09A
:10090A00091E041E051E061E092A042205220622A5
:10091A0009500826045000220550012206500222DE
:10092A000EBEA4EF04F0D8A0B3EF04F002320132F5
:10093A0000320832033EB3EF04F0BFEF04F0D8B040
:10094A00B9EF04F0000E081E001E011E021E082A3E
:10095A000022012202220A7EB9EF04F0010E0C6E77
:10096A00A9EC00F0C7EF04F0020E0C6EA9EC00F03F
:10097A00C7EF04F0040E0C6E34EC00F0C7EF04F07D
:06098A00000E0C6E1200CD
:10099000086A096A000E076203644DEF05F0025011
:1009A00006180A6E075003267E0ED8A0DEEF04F06C
:1009B000035ED8B052EF05F0E2EF04F0035ED8A07A
:1009C00057EF05F0028E068E02C00EF001C00BF04C
:1009D00000C00DF000500402F4CF0CF001500502ED
:1009E000F4CF00F0F3CF08F00402F3500C26F450DB
:1009F0000822000E00220D500502F3500C26F45080
:100A00000822000E002202500402F3500826F4507F
:100A1000002202500502016A000E0122F350002656
:100A2000F45001220D500602F3500826F450002223
:100A3000026A000E012202220B500602F350002629
:100A4000F4500122000E02220E500602F35001263D
:100A5000F450022202BE35EF05F0083600360136AA
:100A600002360306D8B457EF05F048EF05F0D880FA
:100A7000800E08640030000E002201220222D8A05D
:100A800048EF05F0023201320032034A52EF05F01E
:100A90000AAE029E000E5AEF05F0010E40EC00F087
:100AA0005AEF05F0020E34EC00F05AEF05F0040E98
:060AB00047EC00F012000B
:100AB6000050086E0150006E016A026A036A0B6AF2
:100AC6000C6A960E036E0A6A00C001F008C000F0B8
:080AD600086A026A0EDD12003D
:100ADE00959695949598959A959C959E83968394C4
:100AEE00839E839C839A83985BEC00F05BEC00F012
:100AFE005BEC00F0838A8388838658EC00F0839643
:100B0E005BEC00F0838658EC00F083965BEC00F013
:100B1E00838658EC00F083965BEC00F08398838616
:100B2E0058EC00F083965BEC00F0838658EC00F0F6
:100B3E008396839A838E838658EC00F083965BECC3
:100B4E0000F0839E8388838658EC00F0839683980A
:100B5E00838658EC00F083965BEC00F0838658ECAD
:100B6E0000F083968388838658EC00F083965BECC6
:100B7E0000F08398838658EC00F08396838E838CE6
:100B8E00838A8388838658EC00F083965BEC00F0B2
:040B9E00338012008E
:100BA2000900F5CFE6FF0006FBE10106F9E11200BC
:100BB2004F6A506A43C04BF044C04CF045C04DF000
:100BC20046C04EF04E50FF0A08E14D50FF0A05E1C3
:100BD2004C50FF0A02E14B50FF0A0DE147C051F0B1
:100BE20048C052F02F0E536E000E546E9AEC01F074
:100BF200030E006EEFD1010E496E4DAE0ED0800E87
:100C02004D18006E00C04DF0492A47C0E1FF48C0B0
:100C1200E2FF2D0EE66E474A482A000E006E4E187D
:100C220008E100504D1805E100504C1802E14B500C
:100C3200000A0CE147C051F048C052F0250E536E35
:100C4200000E546E9AEC01F0006AC4D14E50FF0AB5
:100C520008E14D50000A05E14C50000A02E14B50F8
:100C6200000A0DE147C051F048C052F0270E536E02
:100C7200000E546E9AEC01F049C000F0ABD1000EA8
:100C8200046E000E056E000E066E7F0E076E4BC0E0
:100C920000F04CC001F04DC002F04EC003F0C0ECB9
:100CA20001F0010ED8B0000E006E00521BE04BC0E6
:100CB20000F04CC001F04DC002F04EC003F0000E37
:100CC200046E000E056E200E066E820E076E5FDE4B
:100CD20000C04BF001C04CF002C04DF003C04EF01A
:100CE2005006CDD7000E046E000E056E200E066E65
:100CF200820E076E4BC000F04CC001F04DC002F0F6
:100D02004EC003F0C0EC01F0000ED8B0010E006E30
:100D120000521BE04BC000F04CC001F04DC002F08D
:100D22004EC003F0CD0E046ECC0E056E4C0E066E58
:100D32007B0E076E2CDE00C04BF001C04CF002C0EF
:100D42004DF003C04EF0502ACDD7FF0E4B14086E63
:100D5200FF0E4C14096E7F0E4D140A6E000E4E14D7
:100D62000B6E08C004F009C005F00AC006F00BC003
:100D720007F004360490053606360736000E4B148B
:100D8200006E000E4C14016E000E4D14026EFF0E2A
:100D92004E14036E00C04BF001C04CF002C04DF087
:100DA20003C04EF004504B10006E05504C10016E03
:100DB20006504D10026E07504E10036E00C04BF0ED
:100DC20001C04CF002C04DF003C04EF07F0E4E5CED
:100DD200006E00C04AF0010E4E6E00C004F04BC01F
:100DE20000F04CC001F04DC002F04EC003F00450C0
:100DF20007E000360090013602360336FF0FF8D7BF
:100E020000C04BF001C04CF002C04DF003C04EF0E8
:100E120047C0E1FF48C0E2FF4E50300FE66E474A3E
:100E2200482A800E5018006E800E010A005C08E30A
:100E3200800E060A006E800E5018005C01E30AD094
:100E420047C0E1FF48C0E2FF2E0EE66E474A482A3D
:100E5200010E4F6E060E4A6E4A50000A54E04E6A68
:100E62004BC000F04CC001F04DC002F04EC003F088
:100E72000036009001360236033600360090013605
:100E8200023603364B5000264C5001224D500222AE
:100E92004E50032200C04BF001C04CF002C04DF096
:100EA20003C04EF04BC000F04CC001F04DC002F048
:100EB2004EC003F00036009001360236033600C001
:100EC2004BF001C04CF002C04DF003C04EF047C0E1
:100ED200E1FF48C0E2FF4E50300FE66E474A482A13
:100EE2004F50000A0EE150065050000A0AE147C076
:100EF200E1FF48C0E2FF2E0EE66E474A482A010E85
:100F02004F6E4A06A9D7FF0E4724E96EFF0E48200E
:100F1200EA6EEE50300A05E1010E475E000E485AB5
:100F2200F2D7FF0E4724E96EFF0E4820EA6EEE501C
:100F32002E0A04E1010E475E000E485A5050000A84
:100F420043E047C0E1FF48C0E2FF650EE66E474A54
:100F5200482A800E5018006E800E000A005C0BE2D8
:100F620047C0E1FF48C0E2FF2D0EE66E474A482A1D
:100F720050500008506E50C04AF0800E090A006EB0
:100F8200800E5018005C0FE20A0E046E4AC000F098
:100F920027EC02F047C0E1FF48C0E2FF0050300FEB
:100FA200E66E474A482A0A0E046E4AC000F027EC51
:100FB20002F008C000F047C0E1FF48C0E2FF005065
:100FC200300FE66E474A482A47C0E1FF48C0E2FFB9
:060FD200E66A006A12004D
:080FD800067EB5EC02F01200E8
:100FE0000FD0800E436E19D0C00E436E16D0940EF3
:100FF000436E13D0D40E436E10D0800E436E0DD0CE
:101000004350010AEEE04350020AEEE04350030A67
:10101000EEE04350040AEEE0F0D74404006E435083
:10102000002600C043F000C055F06BEC00F0339098
:10103000476A47504524E96E000E4620EA6EEE529C
:101040000CE047504524E96E000E4620EA6EEECFD4
:0E10500051F076EC02F0472AECD73380120004
:10105E0016EC09F0C40EC16E92869380956A969036
:10106E00590EC26E35DD010E556E6BEC00F0850E1D
:10107E00D56EF294F28AD76A1EC0D6FFF19CF29218
:10108E00F2889E9C9D8CF28CF28E2050221802E1EA
:10109E0021501F1804E11850191801E1B0D01FC0DB
:1010AE0000F020C001F000DD0A0E046E280E056E61
:1010BE00200E066E770E076E64DC000E046E000EB8
:1010CE00056E480E066E850E076E5BDC000E046E16
:1010DE00000E056E480E066E840E076E76DF00C09B
:1010EE001AF001C01BF002C01CF003C01DF0000E70
:1010FE00241802E1000E23180BE11AC02BF01BC0BE
:10110E002CF01CC02DF01DC02EF0430E186E4FD0CB
:10111E00000E241802E1010E23181DE11AC000F082
:10112E001BC001F01CC002F01DC003F0330E046E94
:10113E00930E056E080E066E870E076EB5EC02F066
:10114E0000C02BF001C02CF002C02DF003C02EF019
:10115E004B0E186E2CD0000E241802E1020E23182E
:10116E0026E1660E006E660E016E660E026E7F0E34
:10117E00036E1AC004F01BC005F01CC006F01DC0A3
:10118E0007F0C8EC04F0000E046E000E056E000EA3
:10119E00066E840E076EB5EC02F000C02BF001C097
:1011AE002CF002C02DF003C02EF0460E186E010E6C
:1011BE00556E6BEC00F02BC043F02CC044F02DC0EC
:1011CE0045F02EC046F0340E476E000E486EEADC37
:1011DE00010E436E010E446E340E456E000E466EC9
:1011EE00F8DEDF0E516E76EC02F018C051F076ECA0
:1011FE0002F018C019F01FC021F020C022F045D710
:02120E00FFD708
:10122C0010EE18F01B0E006E010E016E100EF66E15
:0E123C00120EF76E000EF86ED1EC05F01200E7
:01121000439A
:011211006D6F
:0412120000000000D8
:011216008453
:021217000000D5
:021219000F279D
:02121B000000D1
:02121D0030009F
:04121F00494E4600EE
:0412230000000000C7
:041227004E614E00C6
:020000040030CA
:0D000100220F0EFF0181FF0FC00FE00F4026
:00000001FF
