:040000002FEF05F0E9
:1000080000C017F001C016F002C015F0F2A40AD023
:10001800817025C000F0016A00C0D7FF24C0D6FF58
:10002800C284F2949EAC0ED0C4CF01F0006AC350D3
:100038000024186E000E0120196E010E2A6E000EA3
:100048002B6E9E9C17C000F016C001F015C002F080
:02005800110095
:10005A000F0E0C6E470E0D6E0D2EFED70C2EFCD712
:06006A000000000012007E
:0600700000000000120078
:0A007600210E0D6E0D2EFED71200B4
:100080000B840BAE4BEF00F0010E036E026A016AA7
:0A009000006A0A360232FF0E120069
:08009A000AAE029E000E1200E6
:1000A2000B820BAE5BEF00F0036802680168006828
:0800B2000A360232FF0E1200B3
:1000BA0049BE02D0829E01D0828E49BC02D0829C67
:1000CA0001D0828C49BA02D0829A01D0828A49B878
:1000DA0002D0829801D0828836B002D0828401D0C0
:1000EA0082948286C0DF829649B602D0829E01D06F
:1000FA00828E49B402D0829C01D0828C49B202D04D
:10010A00829A01D0828A49B002D0829801D082882C
:10011A0036B002D0828401D082948286A4DF82968D
:0C012A0036A002D095DF01D0A1DF12004A
:0E013600026A016A006A086A036A000E12007B
:0C014400369045C049F0B7DF368012004D
:100150000D6A086A0050D8B4000C04180A6E0ABE72
:100160000D1E0B6A04AE02D0041E042A00AE02D09B
:10017000001E002A005004100A6E0ABE1FD0045050
:10018000085E003600340836045008260036060E95
:100190000C6E00340836045000B0085E00A008263B
:1001A00000360C2EF6D700A008260BB015D00DAEE9
:1001B000000C001E002A081E082A000C04AE09D0FC
:1001C00000BE04D00050086E006AF1D7006A002A11
:1001D000000C001E0B2AD3D7082A0450085CD8A4B0
:0E01E000E6D7086A002A00AEE2D7FF0C120034
:1001EE00086A096A000E076203647CEF01F0025090
:1001FE0006180A6E075003267E0ED8A00DEF01F0EA
:10020E00035ED8B080EF01F011EF01F0035ED8A0CD
:10021E0084EF01F0028E068E02C00EF001C00BF0CC
:10022E0000C00DF000500402F4CF0CF00150050296
:10023E00F4CF00F0F3CF08F00402F3500C26F45084
:10024E000822000E00220D500502F3500C26F45029
:10025E000822000E002202500402F3500826F45029
:10026E00002202500502016A000E0122F350002600
:10027E00F45001220D500602F3500826F4500022CD
:10028E00026A000E012202220B500602F3500026D3
:10029E00F4500122000E02220E500602F3500126E7
:1002AE00F450022202BE64EF01F008360036013629
:1002BE0002360306D8B484EF01F077EF01F0D88050
:1002CE00800E08640030000E002201220222D8A007
:1002DE0077EF01F0023201320032034A80EF01F073
:1002EE000AAE029E000E86EF01F0010E1DDF86EFB4
:1002FE0001F0020ECFDE86EF01F0040EBADE120020
:10030E000A6A0350D8A40A800750D8A40A820A5059
:10031E00D8B4EAEF01F0030AD8B4A3EF01F00AB0A3
:10032E009EEF01F006AEE8EF01F0E6EF01F002AE4F
:10033E00E6EF01F0E8EF01F00250800B0A6E029E2C
:10034E000650800B069E0A18D8B4B4EF01F00A507E
:10035E00D8B4E6EF01F0E8EF01F00750035CD8B433
:10036E00BEEF01F0D8A0DAEF01F0E0EF01F0065099
:10037E00025CD8B4C8EF01F0D8A0DAEF01F0E0EFDC
:10038E0001F00550015CD8B4D2EF01F0D8A0DAEF3D
:10039E0001F0E0EF01F00450005CD8B4EAEF01F098
:1003AE00D8B0E0EF01F00A52D8B4E8EF01F0E6EF72
:1003BE0001F00A52D8B4E6EF01F0E8EF01F0D88070
:0E03CE001200D8901200D880D88412001200BD
:1003DC000C6A0E6A0250D8A407EF02F001C002F0BA
:1003EC0000C001F0006A0E860250D8A407EF02F09C
:1003FC0001C002F0016A0E960E880250D8B419EFB3
:10040C0002F00E50035ED8A4D8A01EEF02F0D890D4
:10041C0002BE23EF02F0003601360236032E0EEF39
:10042C0002F01EEF02F0010E0C6E7FDE26EF02F0E2
:10043C00020E0C6E1FDE26EF02F0040E0C6E27DE91
:02044C0012009C
:10044E0045C004F046C005F004C002F005C003F03C
:10045E00044A052A47C000F048C001F0474A482A1E
:10046E0000C0E9FF01C0EAFF02C0E1FF03C0E2FFE6
:10047E00EECFE6FF02C0E9FF03C0EAFFEE5201E055
:0C048E00E3D745C000F046C001F01200AA
:10049A000050086E0150006E016A026A036A0B6A14
:1004AA000C6A960E036E0A6A00C001F008C000F0DA
:0804BA00086A026A8EDF1200DD
:1004C2000900F5CFE6FF0006FBE10106F9E11200A3
:1004D200949694949498949A949C949E82968294DE
:1004E200829E829C829A8298B7DDB6DDB5DD828AD1
:1004F20082888286BCDD8296AFDD8286B8DD8296F6
:10050200ABDD8286B4DD8296A7DD82988286AFDD7E
:100512008296A2DD8286ABDD8296829A828E828666
:10052200A6DD829699DD829E82888286A0DD8296F1
:10053200829882869CDD82968FDD828698DD829605
:100542008288828694DD829687DD829882868FDD1C
:100552008296828E828C828A8288828688DD8296C8
:060562007BDD3680120073
:10056800436A446A37C03FF038C040F039C041F0B0
:100578003AC042F04250FF0A08E14150FF0A05E143
:100588004050FF0A02E13F50FF0A0CE13BC045F032
:100598003CC046F01C0E476E000E486E54DF030E3A
:1005A800006EEAD1010E3D6E41AE0ED0800E4118AC
:1005B800006E00C041F03D2A3BC0E1FF3CC0E2FFB5
:1005C8002D0EE66E3B4A3C2A000E006E421808E1EA
:1005D8000050411805E10050401802E13F50000A60
:1005E8000BE13BC045F03CC046F01A0E476E000ECA
:1005F800486E29DF006AC0D14250FF0A08E1415025
:10060800000A05E14050000A02E13F50000A0CE1EF
:100618003BC045F03CC046F0260E476E000E486EC3
:1006280012DF3DC000F0A8D1000E046E000E056E6A
:10063800000E066E7F0E076E3FC000F040C001F04E
:1006480041C002F042C003F05EDE010ED8B0000ED9
:10065800006E00521BE03FC000F040C001F041C0F6
:1006680002F042C003F0000E046E000E056E200E6C
:10067800066E820E076EB7DD00C03FF001C040F085
:1006880002C041F003C042F04406CED7000E046E0B
:10069800000E056E200E066E820E076E3FC000F03B
:1006A80040C001F041C002F042C003F02CDE000E51
:1006B800D8B0010E006E00521BE03FC000F040C0F1
:1006C80001F041C002F042C003F0CD0E046ECC0E22
:1006D800056E4C0E066E7B0E076E85DD00C03FF082
:1006E80001C040F002C041F003C042F0442ACED716
:1006F800FF0E3F14086EFF0E4014096E7F0E411462
:100708000A6E000E42140B6E08C004F009C005F012
:100718000AC006F00BC007F004360490053606360A
:100728000736000E3F14006E000E4014016E000ED6
:100738004114026EFF0E4214036E00C03FF001C068
:1007480040F002C041F003C042F004503F10006E78
:1007580005504010016E06504110026E07504210BD
:10076800036E00C03FF001C040F002C041F003C07A
:1007780042F07F0E425C006E00C03EF0010E426EF9
:1007880000C004F03FC000F040C001F041C002F0DA
:1007980042C003F0045007E00036009001360236EC
:1007A8000336FF0FF8D700C03FF001C040F002C089
:1007B80041F003C042F03BC0E1FF3CC0E2FF4250C1
:1007C800300FE66E3B4A3C2A800E4418006E800EBD
:1007D800010A005C08E3800E060A006E800E4418C9
:1007E800005C01E30AD03BC0E1FF3CC0E2FF2E0EF3
:1007F800E66E3B4A3C2A010E436E060E3E6E3E50A4
:10080800000A54E0426A3FC000F040C001F041C015
:1008180002F042C003F0003600900136023603367B
:10082800003600900136023603363F50002640500D
:100838000122415002224250032200C03FF001C071
:1008480040F002C041F003C042F03FC000F040C099
:1008580001F041C002F042C003F0003600900136BA
:100868000236033600C03FF001C040F002C041F03C
:1008780003C042F03BC0E1FF3CC0E2FF4250300FF2
:10088800E66E3B4A3C2A4350000A0EE144064450B7
:10089800000A0AE13BC0E1FF3CC0E2FF2E0EE66E13
:1008A8003B4A3C2A010E436E3E06A9D7FF0E3B2465
:1008B800E96EFF0E3C20EA6EEE50300A05E1010EAB
:1008C8003B5E000E3C5AF2D7FF0E3B24E96EFF0E4A
:1008D8003C20EA6EEE502E0A04E1010E3B5E000E4B
:1008E8003C5A4450000A42E03BC0E1FF3CC0E2FFF2
:1008F800650EE66E3B4A3C2A800E4418006E800E58
:10090800000A005C0BE23BC0E1FF3CC0E2FF2D0E99
:10091800E66E3B4A3C2A44500008446E44C03EF010
:10092800800E090A006E800E4418005C0EE20A0E62
:10093800046E3EC000F008DC3BC0E1FF3CC0E2FFB3
:100948000050300FE66E3B4A3C2A0A0E046E3EC049
:1009580000F0A8EC00F008C000F03BC0E1FF3CC08C
:10096800E2FF0050300FE66E3B4A3C2A3BC0E1FFF5
:0A0978003CC0E2FFE66A006A1200CC
:100982000FD0800E376E19D0C00E376E16D0940E6F
:10099200376E13D0D40E376E10D0800E376E0DD056
:1009A2003750010AEEE03750020AEEE03750030AF0
:1009B200EEE03750040AEEE0F0D73804006E37500C
:1009C200002600C037F000C049F05DEC00F0369020
:1009D2003B6A3B503924E96E000E3A20EA6EEE5231
:1009E2000CE03B503924E96E000E3A20EA6EEECF5D
:0E09F20045F0A2EC00F03B2AECD73680120054
:100A00000FD0800E376E19D0C00E376E16D0940EF0
:100A1000376E13D0D40E376E10D0800E376E0DD0D7
:100A20003750010AEEE03750020AEEE03750030A71
:100A3000EEE03750040AEEE0F0D73804006E37508D
:100A4000002600C037F0368000C049F05DEC00F0B1
:0E0A5000369039C049F05DEC00F0368012009F
:100A5E0098EC05F0C00EC16E9390946A9682710E5A
:100A6E00C26E30DD010E496E5DEC00F09E9C9D8CD9
:100A7E00F28C840ED56EF294F28AF28E25C000F0BE
:100A8E00016A00C0D7FF24C0D6FF000E2B1802E16A
:100A9E00010E2A183AE118C000F019C001F0F6DC78
:100AAE000A0E046E280E056E200E066E770E076E69
:100ABE00F7EC00F000C020F001C021F002C022F0DF
:100ACE0003C023F000C037F001C038F002C039F087
:100ADE0003C03AF02C0E3B6E000E3C6E3EDD010E56
:100AEE00496E5DEC00F0010E376E010E386E2C0E65
:100AFE00396E000E3A6E3EDF010E376E080E386EFE
:0E0B0E00560E396E76DF2A6A2B6ABFD7FFD7E4
:100B300010EE18F0140E006E010E016E1C0EF66E13
:0E0B40000B0EF76E000EF86E61EC02F0120064
:020B1C000000D7
:020B1E003000A5
:040B20004E614E00D4
:040B240000000000CD
:020B2800DC0BE4
:040B2A00494E4600EA
:020B2E000000C5
:020000040030CA
:0D000100220F0EFF0181FF0FC00FE00F4026
:00000001FF
