:040000004BEF0EF0C4
:1000080000C017F001C016F002C015F0F2A40AD023
:10001800817023C000F0016A00C0D7FF22C0D6FF5C
:10002800C284F2949EAC0ED0C4CF01F0006AC350D3
:100038000024186E000E0120196E010E246E000EA9
:10004800256E9E9C17C000F016C001F015C002F086
:02005800110095
:08005A000AAE029E000E120026
:100062000B840BAE3CEF00F0010E036E026A016AD4
:0A007200006A0A360232FF0E120087
:0E007C00026A016A006A086A036A000E120036
:10008A000B820BAE4FEF00F003680268016800684C
:08009A000A360232FF0E1200CB
:1000A2000CB093EF00F00CA239EF01F00E6A000ED3
:1000B2000264AAEF00F0F00E0214D8A475EF00F06B
:1000C200023A01380F0B02260138F00B016E00389C
:1000D2000F0B01260038F00B006E08380F0B0026BC
:1000E2000838F00B086E0E84D89002BE8EEF00F036
:1000F20008360036013602360E2A02BE8EEF00F0B6
:1001020008360036013602360E2A02BE8EEF00F0A5
:1001120008360036013602360E2A0E5003642FEFDF
:1001220001F0035E0BBC08AE34EF01F0D880800E04
:1001320008640030000E002201220222D8A034EF0F
:1001420001F0023201320032034A39EF01F034EF9A
:1001520001F001C002F000C001F008C000F0086A1E
:10016200000E0E860264E1EF00F0F00E0214D8A435
:10017200C9EF00F0023A01380F0B02260138F00BEA
:10018200016E00380F0B01260038F00B006E0E8452
:10019200D89002BE8EEF00F00036013602360E2AEB
:1001A20002BE8EEF00F00036013602360E2A02BE83
:1001B2008EEF00F00036013602360E2A8EEF00F086
:1001C20001C002F000C001F0006A000E0E960E8817
:1001D20002640EEF01F0F00E0214D8A4F9EF00F061
:1001E200023A01380F0B02260138F00B016E0E8421
:1001F200D89002BE8EEF00F0013602360E2A02BE01
:100202008EEF00F0013602360E2A02BE8EEF00F0AB
:10021200013602360E2A8EEF00F001C002F0016AAA
:10022200000E0E8602643EEF01F0F00E0214D8A416
:100232001DEF01F0023A0E84D89002BE8EEF00F05C
:1002420002360E2A02BE8EEF00F002360E2A02BEDF
:100252008EEF00F002360E2A8EEF00F0010E0C6EC9
:10026200FFDE41EF01F0020E0C6EF6DE41EF01F00F
:10027200040E0C6E09DF41EF01F0080E0C6EFDDE7C
:02028200120068
:10028400025006180E6E086A096A0B6A0350076466
:1002940035EF02F006500A6E068E028E03500B6E86
:1002A4000750036E000E0B6485EF01F00B50075EE0
:1002B400D8B426EF02F0070E0764F4EF01F0075EEE
:1002C40000C008F001C000F002C001F0026A074E4D
:1002D40026EF02F00764C9EF01F0075E00C008F0E2
:1002E40001C000F0016A074E26EF02F00764A7EF91
:1002F40001F0075E00C008F0006A074E26EF02F026
:1003040007648EEF01F00AC002F005C001F004C0DA
:1003140000F0086A4FEF03F0030E076499EF01F051
:10032400075E08380F0B086E074E26EF02F0D890D0
:100334000832074E26EF02F0D8900832074E26EF17
:1003440002F0D890083226EF02F0030E0764B8EFEB
:1003540001F0075E08380F0B086E0038F00B082612
:1003640000380F0B006E074E26EF02F0D8900032D3
:100374000832074E26EF02F0D89000320832074EBA
:1003840026EF02F0D8900032083226EF02F0030E76
:100394000764E0EF01F0075E08380F0B086E0038C1
:1003A400F00B082600380F0B006E0138F00B002606
:1003B40001380F0B016E074E26EF02F0D890013280
:1003C40000320832074E26EF02F0D8900132003294
:1003D4000832074E26EF02F0D8900132003208327C
:1003E40026EF02F0030E076411EF02F0075E0838EF
:1003F4000F0B086E0038F00B082600380F0B006E48
:100404000138F00B002601380F0B016E0238F00B97
:10041400012602380F0B026E074E26EF02F0D89029
:100424000232013200320832074E26EF02F0D89031
:100434000232013200320832074E26EF02F0D89021
:100444000232013200320832096A000E0EAE1AEF8F
:1004540003F0081E001E011E021E082A00220122AB
:1004640002221AEF03F00750D8A43BEF02F04FEF3B
:1004740003F0096A02C00AF0028E068E0750035C7C
:10048400076ED8B40DEF03F0070E0764DBEF02F03C
:10049400075E0450096E0550046E0650056E066A28
:1004A400074E0DEF03F0070E0764B0EF02F0075E8E
:1004B4000450096E0550046E056A074E0DEF03F0F3
:1004C400070E07648EEF02F0075E0450096E046A9B
:1004D400074E0DEF03F0070E076475EF02F00AC034
:1004E40002F04FEF03F0030E076480EF02F0075EA3
:1004F40009380F0B096E074E0DEF03F0D89009323F
:10050400074E0DEF03F0D8900932074E0DEF03F0BC
:10051400D89009320DEF03F0030E07649FEF02F049
:10052400075E09380F0B096E0438F00B09260438EE
:100534000F0B046E074E0DEF03F0D890043209320E
:10054400074E0DEF03F0D89004320932074E0DEF39
:1005540003F0D890043209320DEF03F0030E076460
:10056400C7EF02F0075E09380F0B096E0438F00B71
:10057400092604380F0B046E0538F00B04260538E1
:100584000F0B056E074E0DEF03F0D89005320432C1
:100594000932074E0DEF03F0D890053204320932C8
:1005A400074E0DEF03F0D8900532043209320DEFF7
:1005B40003F0030E0764F8EF02F0075E09380F0B2F
:1005C400096E0438F00B092604380F0B046E053845
:1005D400F00B042605380F0B056E0638F00B0526C4
:1005E40006380F0B066E074E0DEF03F0D890063257
:1005F400053204320932074E0DEF03F0D89006326B
:10060400053204320932074E0DEF03F0D89006325A
:10061400053204320932086A000E0EAE1AEF03F0F6
:10062400091E041E051E061E092A0422052206228E
:1006340009500826045000220550012206500222C7
:100644000EBE31EF03F0D8A040EF03F002320132C6
:1006540000320832033E40EF03F04AEF03F0D8B013
:1006640045EF03F0000E081E001E011E021E082A9C
:100674000022012202220A7E45EF03F0010E0C6ED5
:100684000EDD51EF03F0020E0C6E09DD51EF03F0A5
:10069400040E0C6EF8DC51EF03F0000E0C6E120029
:1006A4000B800BAE5EEF03F0026A0AAEFF0E026E21
:0C06B400016E006E0A360232FF0E1200CA
:1006C0000A6A0350D8A40A800750D8A40A820A50A4
:1006D000D8B4C3EF03F0030AD8B47CEF03F00AB038
:1006E00077EF03F006AEC1EF03F0BFEF03F002AE09
:1006F000BFEF03F0C1EF03F00250800B0A6E029EC1
:100700000650800B069E0A18D8B48DEF03F00A50ED
:10071000D8B4BFEF03F0C1EF03F00750035CD8B4C7
:1007200097EF03F0D8A0B3EF03F0B9EF03F0065052
:10073000025CD8B4A1EF03F0D8A0B3EF03F0B9EF97
:1007400003F00550015CD8B4ABEF03F0D8A0B3EFD1
:1007500003F0B9EF03F00450005CD8B4C3EF03F02A
:10076000D8B0B9EF03F00A52D8B4C1EF03F0BFEF2D
:1007700003F00A52D8B4BFEF03F0C1EF03F0D88002
:0E0780001200D8901200D880D8841200120007
:10078E000C6A0E6A0250D8A4E0EF03F001C002F02A
:10079E0000C001F0006A0E860250D8A4E0EF03F00C
:1007AE0001C002F0016A0E960E880250D8B4F2EF24
:1007BE0003F00E50035ED8A4D8A0F7EF03F0D89044
:1007CE0002BEFCEF03F0003601360236032EE7EFD1
:1007DE0003F0F7EF03F0010E0C6E49DCFFEF03F0B0
:1007EE00020E0C6E37DCFFEF03F0040E0C6E2EDCE7
:0207FE001200E7
:10080000086A096A000E0762036485EF04F002506B
:1008100006180A6E075003267E0ED8A016EF04F0C5
:10082000035ED8B08AEF04F01AEF04F0035ED8A09C
:100830008FEF04F0028E068E02C00EF001C00BF0A6
:1008400000C00DF000500402F4CF0CF0015005027E
:10085000F4CF00F0F3CF08F00402F3500C26F4506C
:100860000822000E00220D500502F3500C26F45011
:100870000822000E002202500402F3500826F45011
:10088000002202500502016A000E0122F3500026E8
:10089000F45001220D500602F3500826F4500022B5
:1008A000026A000E012202220B500602F3500026BB
:1008B000F4500122000E02220E500602F3500126CF
:1008C000F450022202BE6DEF04F008360036013605
:1008D00002360306D8B48FEF04F080EF04F0D8801E
:1008E000800E08640030000E002201220222D8A0EF
:1008F00080EF04F0023201320032034A8AEF04F042
:100900000AAE029E000E92EF04F0010E3EEC00F0E3
:1009100092EF04F0020E45EC00F092EF04F0040EAA
:0609200031EC00F01200B2
:06092600067EADDC1200AC
:10092C000050086E0150006E0250016E0350026EB2
:10093C00036A0B6A0C6A9E0E036E0A6A02AEB3EF70
:10094C0004F0081E001E011E021E082AD8B4002A3C
:10095C00D8B4012AD8B4022A0A8E020E0C6E51ECBD
:04096C0000F0120085
:100970000B6A0C6A086A0350D8B43CEF05F002C059
:100980000AF0028E9E0E035E03AE2CEF05F0036CA0
:10099000080E035CD8A0F9EF04F0036E083600C01F
:1009A00008F001C000F002C001F0026A080E035C0A
:1009B000D8A0F9EF04F0036E083600C008F001C0BB
:1009C00000F0016A080E035CD8A0F9EF04F0036E92
:1009D000083600C008F0006A080E035CD8A0F9EFE2
:1009E00004F0036E0836086A0350D8A4D89005EFC7
:1009F00005F00350D8B405EF05F0D890023201326B
:100A000000320832032EFDEF04F00BBC08A016EFF5
:100A100005F0D8A016EF05F0082AD8B4002AD8B4FB
:100A2000012AD8B4022A02BE40EF05F00AAE3CEF1C
:100A300005F0021E011E001E081E082AD8B4002A56
:100A4000D8B4012AD8B4022A3CEF05F0026A016A40
:100A5000006A086A3CEF05F00B800BAE46EF05F02C
:100A6000026A0AAE46EF05F0026E016E006E086E75
:100A70000A36023246EF05F00C6A000E47EF05F029
:100A8000010E0C6E000E0EDE47EF05F0FF0E025059
:100A9000036E0150026E0050016E0850006E12008D
:080AA0000B6A0B86FF0E120029
:100AA8000F0E0C6E470E0D6E0D2EFED70C2EFCD7BA
:060AB80000000000120026
:0A0ABE00210E0D6E0D2EFED7120062
:060AC80000000000120016
:100ACE005BBE02D0829E01D0828E5BBC02D0829C25
:100ADE0001D0828C5BBA02D0829A01D0828A5BB836
:100AEE0002D0829801D0828838B002D0828401D0A0
:100AFE0082948286E2DF82965BB602D0829E01D01D
:100B0E00828E5BB402D0829C01D0828C5BB202D00A
:100B1E00829A01D0828A5BB002D0829801D08288FC
:100B2E0038B002D0828401D082948286C6DF82964B
:0C0B3E0038A002D0B2DF01D0BBDF1200F3
:100B4A000450000A12E10550000A0FE10650000A9B
:100B5A000CE10750000A09E1FF0E006EFF0E016E5C
:100B6A007F0E026EFF0E036EA7D0086A096A07504D
:100B7A00D8B450EF06F00350D8B454EF06F0025040
:100B8A0006180A6E028E068E0E6A02C008F001C0AE
:100B9A000CF000C00DF004500D5E0550D8A0053CC5
:100BAA000C5E0650D8A0063C085E086A0C6A0D6AFC
:100BBA00D8A0E7EF05F0D8900232013200320832AD
:100BCA00010E0E6E0750035ED8A0F4EF05F07E0EFC
:100BDA000E240326D8B059EF06F0FAEF05F07E0E80
:100BEA000E240326D8A05EEF06F0180E0B6E0D3603
:100BFA000C3608360036013602360E360450005ED0
:100C0A000550D8A0053C015E0650D8A0063C025EFD
:100C1A0006340E120EA015EF06F00D8020EF06F036
:100C2A00045000260550D8B0053C01260650D8B01D
:100C3A00062802260D900B2EFCEF05F046EF06F073
:100C4A00D8900036013602360E360450005E055042
:100C5A00D8A0053C015E0650D8A0063C025E0634C8
:100C6A000E10010B0D26D8B00C2AD8B4082AD8A425
:100C7A0046EF06F008320C320D32032AD8B459EF87
:100C8A0006F00AAE089E0850026E0C50016E0D5016
:100C9A00006E61EF06F0010EFEDE61EF06F0020E55
:100CAA003EEC00F061EF06F0040E45EC00F061EF57
:0A0CBA0006F0080E31EC00F0120005
:100CC40003500718D8A476EF06F002500618D8A4EB
:100CD40076EF06F001500518D8A476EF06F0005020
:0E0CE4000418D8B4D8841200D894120012005C
:100CF20062C000F063C001F0000E63BEFF0E026E20
:100D0200036E00360090013602360336003600903C
:100D12000136023603365F500024F66E6050012021
:100D2200F76E61500220F86E0900F5CF64F00900F9
:100D3200F5CF65F00900F5CF66F00900F5CF67F051
:100D42006250631048E05BC000F05CC001F05DC01F
:100D520002F05EC003F064C004F065C005F066C036
:100D620006F067C007F04BDD010E625E000E635AAB
:100D720062C004F063C005F0000E63BEFF0E066E93
:100D8200076E04360490053606360736043604909C
:100D92000536063607365F500424F66E605005208D
:100DA200F76E61500620F86E0900F5CF04F00900D5
:100DB200F5CF05F00900F5CF06F00900F5CF07F0F1
:100DC20042EC01F000C064F001C065F002C066F0C0
:100DD20003C067F0B5D764C000F065C001F066C01B
:080DE20002F067C003F01200EB
:100DEA005B0E046E000E056E030E0424E96E000EFF
:100DFA000520EA6E7E0EEE5C006E016A000E015A54
:100E0A005FC0E1FF60C0E2FF00C0E6FF01C0E6FF8D
:100E1A00030E0424E16E000E0520E26E7E0EE66EDD
:100E2A005BC000F05CC001F05DC002F05EC003F080
:020E3A001200A4
:100E3C005EC000F0016A026A036AFF0E0016000E23
:100E4C00011600C063F001C064F07F0E005C026EFE
:100E5C00000E0158036E02C063F003C064F0800EF4
:100E6C000318006E800E005C02E1000E025C21E2B1
:100E7C00046A056A066A076A5BC000F05CC001F090
:100E8C005DC002F05EC003F015DC010ED8B0000EA0
:100E9C00006E005209E0000E006E000E016E800E16
:100EAC00026E7F0E036E58D0006A016A026A036AF2
:100EBC0053D06450000802E16350180809E25BC08B
:100ECC0000F05CC001F05DC002F05EC003F044D0E5
:100EDC005BC000F05CC001F05DC002F05EC003F0CE
:100EEC0041DD1EDD00C05FF001C060F002C061F0AA
:100EFC0003C062F000C004F001C005F002C006F0AF
:100F0C0003C007F05BC000F05CC001F05DC002F0F4
:100F1C005EC003F060EC03F0010ED8B0000E006E62
:100F2C00005212E0000E046E000E056E000E066EEE
:100F3C007F0E076E5FC000F060C001F061C002F070
:100F4C0062C003F0EADC08D05FC000F060C001F0C2
:0A0F5C0061C002F062C003F0120051
:100F66000B6A0350D8B4F9EF07F002500A6E028EEE
:100F76008E0E035E03AEFDEF07F0036C080E035CF6
:100F8600D8A0D8EF07F0036E013602C001F0026A5E
:100F9600080E035CD8A0D8EF07F0036E0136016A8D
:100FA6000350D8A4D890E2EF07F00350D8B4E2EF8C
:100FB60007F0D89002320132032EDCEF07F00BBCAB
:100FC60001A0EFEF07F0D8A0EFEF07F0012AD8B4A1
:100FD600022A02BE0CEF08F00AAE12EF08F0021E5B
:100FE600011E012AD8B4022A12EF08F0026A016A29
:100FF60012EF08F00B800BAE16EF08F0026A0AAE8D
:1010060016EF08F0FF0E026E016E0A36023216EF78
:1010160008F0010E0C6E52EC03F018EF08F0000E0B
:101026000C6E18EF08F0FF0E0C6E0150006E0250A9
:04103600016E120035
:10103A005B0E616E000E626E030E6124D96E000EA5
:10104A006220DA6EDE505F24016E000E6020026EAE
:10105A0001C05FF002C060F0800E0218006E800EC0
:10106A00005C02E1000E015C05E2006A016A026AA4
:10107A00036A3FD0800E006E800E6018005C02E1A9
:10108A005F50FF0826E2046A056A066A076A5BC0BF
:10109A0000F05CC001F05DC002F05EC003F060ECDD
:1010AA0003F0010ED8B0000E006E005209E0FF0EE8
:1010BA00006EFF0E016EFF0E026EFF0E036E19D058
:1010CA00FF0E006EFF0E016E7F0E026EFF0E036EA4
:1010DA0010D0030E6124E16E000E6220E26E5FC042
:1010EA00E6FF5BC000F05CC001F05DC002F05EC0CC
:0410FA0003F01200ED
:1010FE0000C008F00150006E016A026A036A0B6AB2
:10110E000C6A016A026A036A960E036E0A6A00AEE0
:10111E0097EF08F0081E001E082AD8B4002A0A8E7F
:10112E0000C001F008C000F0086A026AC7EC03F0C4
:02113E0012009D
:101140000D6A086A0050D8B4000C04180A6E0ABE72
:101150000D1E0B6A04AE02D0041E042A00AE02D09B
:10116000001E002A005004100A6E0ABE1FD0045050
:10117000085E003600340836045008260036060E95
:101180000C6E00340836045000B0085E00A008263B
:1011900000360C2EF6D700A008260BB015D00DAEE9
:1011A000000C001E002A081E082A000C04AE09D0FC
:1011B00000BE04D00050086E006AF1D7006A002A11
:1011C000000C001E0B2AD3D7082A0450085CD8A4B0
:0E11D000E6D7086A002A00AEE2D7FF0C120034
:0C11DE00389051C05BF074DC38801200C7
:1011EA0051C004F052C005F053C006F054C007F0D5
:1011FA00006A016A026A036A60EC03F0000ED8B062
:10120A00010E006E005205E0006A016A026A036A72
:10121A0069D051C05BF052C05CF053C05DF054C05D
:10122A005EF0550E5F6E000E606EDADD000E046E23
:10123A00000E056E000E066E800E076E00EC04F0BE
:10124A00000E046E000E056E000E066E7F0E076E0F
:10125A0093EC04F000C051F001C052F002C053F008
:10126A0003C054F0010E555E000E565A00C05BF0E2
:10127A0001C05CF002C05DF003C05EF01C0E5F6E40
:10128A001E0E606E000E616E080E626E000E636EB8
:10129A002BDD00C057F001C058F002C059F003C05E
:1012AA005AF057C051F058C052F059C053F05AC0C2
:1012BA0054F055C000F056C001F01CDF180E046E41
:1012CA00720E056E310E066E7E0E076E00EC04F08D
:1012DA0057C004F058C005F059C006F05AC007F0CC
:0612EA0042EC01F01200CD
:1012F00051C004F052C005F004C002F005C003F074
:10130000044A052A53C000F054C001F0534A542A3D
:1013100000C0E9FF01C0EAFF02C0E1FF03C0E2FF35
:10132000EECFE6FF02C0E9FF03C0EAFFEE5201E0A4
:0C133000E3D751C000F052C001F01200E1
:10133C00046A056A066A076A51C000F052C001F0DF
:10134C0053C002F054C003F0B7DC010ED8A4000E59
:10135C00006E005209E0000E006E000E016E000ED1
:10136C00026E7F0E036EFAD051C004F052C005F02D
:10137C0053C006F054C007F0FC0E006ED40E016E84
:10138C00320E026E850E036E60EC03F0010ED8B0C7
:10139C00000E006E005209E0FF0E006EFF0E016E93
:1013AC007F0E026EFF0E036ED9D04F0E046EAC0E84
:1013BC00056EAE0E066E850E076E51C000F052C063
:1013CC0001F053C002F054C003F060EC03F0010EC6
:1013DC00D8B0000E006E005205E0006A016A026A85
:1013EC00036ABCD0046A056A066A076A51C000F039
:1013FC0052C001F053C002F054C003F060EC03F093
:10140C00010ED8B0000E006E00C057F00052D8A4E8
:10141C00537E51C000F052C001F053C002F054C0D2
:10142C0003F03B0E046EAA0E056E380E066E7F0E90
:10143C00076E00EC04F000C051F001C052F002C085
:10144C0053F003C054F000C05BF001C05CF002C06C
:10145C005DF003C05EF0ECDC80DD00C055F001C037
:10146C0056F047DE00C004F001C005F002C006F0E3
:10147C0003C007F051C000F052C001F053C002F09D
:10148C0054C003F093EC04F000C051F001C052F0D2
:10149C0002C053F003C054F000C05BF001C05CF01C
:1014AC0002C05DF003C05EF0F40E5F6E1D0E606E48
:1014BC00000E616E090E626E000E636E14DC00C0CD
:1014CC005BF001C05CF002C05DF003C05EF055C083
:1014DC005FF056C060F0ABDD00C051F001C052F0BF
:1014EC0002C053F003C054F0575230E0FF0E046EAC
:1014FC00FF0E056E7F0E066EFF0E076E51C000F0DC
:10150C0052C001F053C002F054C003F062EC06F07C
:10151C00010ED8A4000E006E005205E0006A016AAC
:10152C00026A036A1BD051C004F052C005F053C0CC
:10153C0006F054C007F0000E006E000E016E000E97
:10154C00026E7F0E036EA5EC05F008D051C000F0C2
:0E155C0052C001F053C002F054C003F0120060
:10156A000050086E0150006E016A026A036A0B6A33
:10157A000C6A960E036E0A6A00C001F008C000F0F9
:0A158A00086A026AC7EC03F01200C1
:101594000900F5CFE6FF0006FBE10106F9E11200C0
:1015A400949694949498949A949C949E82968294FB
:1015B400829E829C829A829854EC05F054EC05F049
:1015C40054EC05F0828A8288828664EC05F0829667
:1015D40054EC05F0828664EC05F0829654EC05F038
:1015E400828664EC05F0829654EC05F0829882863B
:1015F40064EC05F0829654EC05F0828664EC05F008
:101604008296829A828E828664EC05F0829654ECED
:1016140005F0829E8288828664EC05F08296829828
:10162400828664EC05F0829654EC05F0828664ECC4
:1016340005F082968288828664EC05F0829654ECEA
:1016440005F08298828664EC05F08296828E828C04
:10165400828A8288828664EC05F0829654EC05F0D6
:0416640038801200B8
:101668004F6A506A43C04BF044C04CF045C04DF03F
:1016780046C04EF04E50FF0A08E14D50FF0A05E102
:101688004C50FF0A02E14B50FF0A0CE147C051F0F1
:1016980048C052F0340E536E000E546E25DE030E11
:1016A800006EEFD1010E496E4DAE0ED0800E4D1872
:1016B800006E00C04DF0492A47C0E1FF48C0E2FF74
:1016C8002D0EE66E474A482A000E006E4E1808E1B5
:1016D80000504D1805E100504C1802E14B50000A2B
:1016E8000BE147C051F048C052F02A0E536E000E6D
:1016F800546EFADD006AC5D14E50FF0A08E14D501C
:10170800000A05E14C50000A02E14B50000A0CE1C6
:1017180047C051F048C052F02C0E536E000E546E64
:10172800E3DD49C000F0ADD1000E046E000E056E79
:10173800000E066E7F0E076E4BC000F04CC001F025
:101748004DC002F04EC003F060EC03F0010ED8B0BB
:10175800000E006E00521CE04BC000F04CC001F0BF
:101768004DC002F04EC003F0000E046E000E056E70
:10177800200E066E820E076E00EC04F000C04BF0DF
:1017880001C04CF002C04DF003C04EF05006CCD75B
:10179800000E046E000E056E200E066E820E076E99
:1017A8004BC000F04CC001F04DC002F04EC003F039
:1017B80060EC03F0000ED8B0010E006E00521CE081
:1017C8004BC000F04CC001F04DC002F04EC003F019
:1017D800CD0E046ECC0E056E4C0E066E7B0E076E9B
:1017E80000EC04F000C04BF001C04CF002C04DF01A
:1017F80003C04EF0502ACCD7FF0E4B14086EFF0ED4
:101808004C14096E7F0E4D140A6E000E4E140B6EAA
:1018180008C004F009C005F00AC006F00BC007F0C4
:1018280004360490053606360736000E4B14006E53
:10183800000E4C14016E000E4D14026EFF0E4E1475
:10184800036E00C04BF001C04CF002C04DF003C065
:101858004EF004504B10006E05504C10016E0650AF
:101868004D10026E07504E10036E00C04BF001C0C1
:101878004CF002C04DF003C04EF07F0E4E5C006E7F
:1018880000C04AF0010E4E6E00C004F04BC000F0DC
:101898004CC001F04DC002F04EC003F0045007E008
:1018A80000360090013602360336FF0FF8D700C025
:1018B8004BF001C04CF002C04DF003C04EF047C0E1
:1018C800E1FF48C0E2FF4E50300FE66E474A482A13
:1018D800800E5018006E800E010A005C08E3800E2E
:1018E800060A006E800E5018005C01E30AD047C05B
:1018F800E1FF48C0E2FF2E0EE66E474A482A010E75
:101908004F6E060E4A6E4A50000A54E04E6A4BC0AB
:1019180000F04CC001F04DC002F04EC003F000369C
:101928000090013602360336003600900136023642
:1019380003364B5000264C5001224D5002224E5087
:10194800032200C04BF001C04CF002C04DF003C0B0
:101958004EF04BC000F04CC001F04DC002F04EC03C
:1019680003F00036009001360236033600C04BF013
:1019780001C04CF002C04DF003C04EF047C0E1FF7B
:1019880048C0E2FF4E50300FE66E474A482A4F5093
:10199800000A0EE150065050000A0AE147C0E1FF74
:1019A80048C0E2FF2E0EE66E474A482A010E4F6EE7
:1019B8004A06A9D7FF0E4724E96EFF0E4820EA6EB3
:1019C800EE50300A05E1010E475E000E485AF2D784
:1019D800FF0E4724E96EFF0E4820EA6EEE502E0AED
:1019E80004E1010E475E000E485A5050000A43E0D9
:1019F80047C0E1FF48C0E2FF650EE66E474A482A45
:101A0800800E5018006E800E000A005C0BE247C082
:101A1800E1FF48C0E2FF2D0EE66E474A482A5050C3
:101A28000008506E50C04AF0800E090A006E800E01
:101A38005018005C0FE20A0E046E4AC000F0A0ECD9
:101A480008F047C0E1FF48C0E2FF0050300FE66EE3
:101A5800474A482A0A0E046E4AC000F0A0EC08F073
:101A680008C000F047C0E1FF48C0E2FF0050300F57
:101A7800E66E474A482A47C0E1FF48C0E2FFE66AE7
:041A8800006A1200DE
:101A8C000FD0800E436E19D0C00E436E16D0940E3C
:101A9C00436E13D0D40E436E10D0800E436E0DD017
:101AAC004350010AEEE04350020AEEE04350030AB1
:101ABC00EEE04350040AEEE0F0D74404006E4350CD
:101ACC00002600C043F000C05BF067EC05F03890D6
:101ADC00476A47504524E96E000E4620EA6EEE52E6
:101AEC000CE047504524E96E000E4620EA6EEECF1E
:0E1AFC0051F0EFEC08F0472AECD738801200CA
:101B0A004F6A046A056A066A076A47C000F048C055
:101B1A0001F049C002F04AC003F062EC06F0010E7F
:101B2A00D8A4000E006E005209E0000E006E000EEE
:101B3A00016E000E026E7F0E036EA7D0046A056A5C
:101B4A00066A076A43C000F044C001F045C002F0CB
:101B5A0046C003F062EC06F0010ED8A4000E006E37
:101B6A00005205E0006A016A026A036A8ED0046ABA
:101B7A00056A066A076A43C000F044C001F045C01E
:101B8A0002F046C003F060EC03F0010ED8B0000E7C
:101B9A00006E00522DE047C000F048C001F049C075
:101BAA0002F04AC003F0B8EC04F000C04BF001C0E8
:101BBA004CF002C04DF003C04EF096EC04F047C062
:101BCA0004F048C005F049C006F04AC007F062ECCC
:101BDA0006F0000ED8A4010E006E005205E0006A5D
:101BEA00016A026A036A51D0010E4B144F6E457E98
:101BFA0043C051F044C052F045C053F046C054F0BF
:101C0A00F5EC08F000C043F001C044F002C045F012
:101C1A0003C046F047C004F048C005F049C006F0CA
:101C2A004AC007F000EC04F000C043F001C044F0E1
:101C3A0002C045F003C046F000C051F001C052F0A6
:101C4A0002C053F003C054F09EEC09F000C043F008
:101C5A0001C044F002C045F003C046F04F520DE007
:101C6A00000E4318006E000E4418016E800E4518CF
:101C7A00026E000E4618036E08D043C000F044C03E
:0C1C8A0001F045C002F046C003F012005B
:101C960030EC0FF0C00EC16E9390946A9682710E6E
:101CA600C26E7DDC010E5B6E67EC05F09E9C9D8C22
:101CB600F28C840ED56EF294F28AF28E23C000F076
:101CC600016A00C0D7FF22C0D6FF000E251802E128
:101CD600010E2418D8A489D018C000F019C001F04C
:101CE60041DC0A0E046E280E056E200E066E770E77
:101CF600076E00EC04F000C026F001C027F002C019
:101D060028F003C029F000C004F001C005F002C0AD
:101D160006F003C007F0000E006E000E016E200EE6
:101D2600026E810E036EA5EC05F0000E046E000E29
:101D3600056E000E066E7F0E076E93EC04F0000E25
:101D4600046E600E056E6A0E066E8C0E076E00EC53
:101D560004F000C01AF001C01BF002C01CF003C062
:101D66001DF0000E046ED90E056E780E066E8F0EEF
:101D7600076EA5EC05F000C043F001C044F002C0B8
:101D860045F003C046F03E0E476E260E486E950E91
:101D9600496E7F0E4A6EB6DE00C01EF001C01FF00F
:101DA60002C020F003C021F000C043F001C044F09F
:101DB60002C045F003C046F0390E476E000E486E6D
:101DC60050DC010E436E010E446E390E456E000E58
:101DD600466E59DE010E436E080E446E300E456E99
:0E1DE600000E466E50DE246A256A6FD7FFD7C6
:101E600010EE18F0200E006E010E016E400EF66EA0
:0E1E70001E0EF76E000EF86ECAEC0AF012009D
:101DF4000000007F1872317EF0FD757C4758637ACD
:101E040058951D7882C42E75A8782172EF93006FBF
:081E1400A092276B46561568E9
:101E1C00FFE65B5DC4FF7F7E80EFFF7D90E1297D57
:101E2C00EC82F67C82AD2B7C0E3CC37B87D1137A83
:041E3C004178D3779F
:021E40000000A0
:041E4200000000009C
:041E46000000000098
:021E4A00DC0BAF
:021E4C00000094
:041E4E000000000090
:021E520030005E
:041E5400494E4600AD
:041E58004C7578004D
:041E5C004E614E0085
:020000040030CA
:0D000100220F0EFF0181FF0FC00FE00F4026
:00000001FF
