:04000000F8EF08F01D
:1000080000C017F001C016F002C015F0F0A00DD026
:100018001C4A1D2A000E006E1D50005C02E11C5097
:10002800070802E21C6A1D6AF090F2A40AD08170E7
:1000380029C000F0016A00C0D7FF28C0D6FFC284DB
:10004800F2949EAC0ED0C4CF01F0006AC3500024D5
:10005800326E000E0120336E010E266E000E276EE2
:100068009E9C17C000F016C001F015C002F01100E8
:080078000AAE029E000E120008
:100080000B840BAE4BEF00F0010E036E026A016AA7
:0A009000006A0A360232FF0E120069
:0E009A00026A016A006A086A036A000E120018
:1000A8000B820BAE5EEF00F003680268016800681F
:0800B8000A360232FF0E1200AD
:1000C0000F0E0C6E470E0D6E0D2EFED70C2EFCD7AC
:0600D00000000000120018
:0A00D600210E0D6E0D2EFED7120054
:0600E00000000000120008
:1000E6000CB0B5EF00F00CA25BEF01F00E6A000E4B
:1000F6000264CCEF00F0F00E0214D8A497EF00F0E3
:10010600023A01380F0B02260138F00B016E003857
:100116000F0B01260038F00B006E08380F0B002677
:100126000838F00B086E0E84D89002BEB0EF00F0CF
:1001360008360036013602360E2A02BEB0EF00F04F
:1001460008360036013602360E2A02BEB0EF00F03F
:1001560008360036013602360E2A0E50036451EF79
:1001660001F0035E0BBC08AE56EF01F0D880800E9E
:1001760008640030000E002201220222D8A056EFA9
:1001860001F0023201320032034A5BEF01F056EF12
:1001960001F001C002F000C001F008C000F0086ADA
:1001A600000E0E86026403EF01F0F00E0214D8A4CE
:1001B600EBEF00F0023A01380F0B02260138F00B84
:1001C600016E00380F0B01260038F00B006E0E840E
:1001D600D89002BEB0EF00F00036013602360E2A85
:1001E60002BEB0EF00F00036013602360E2A02BE1D
:1001F600B0EF00F00036013602360E2AB0EF00F0FE
:1002060001C002F000C001F0006A000E0E960E88D2
:10021600026430EF01F0F00E0214D8A41BEF01F0D7
:10022600023A01380F0B02260138F00B016E0E84DC
:10023600D89002BEB0EF00F0013602360E2A02BE9A
:10024600B0EF00F0013602360E2A02BEB0EF00F023
:10025600013602360E2AB0EF00F001C002F0016A44
:10026600000E0E86026460EF01F0F00E0214D8A4B0
:100276003FEF01F0023A0E84D89002BEB0EF00F0D4
:1002860002360E2A02BEB0EF00F002360E2A02BE79
:10029600B0EF00F002360E2AB0EF00F0010E0C6E41
:1002A600ECDE63EF01F0020E0C6EE3DE63EF01F0AD
:1002B600040E0C6EF6DE63EF01F0080E0C6EEADE3D
:0202C600120024
:1002C8007EBE02D0829E01D0828E7EBC02D0829CED
:1002D80001D0828C7EBA02D0829A01D0828A7EB8FE
:1002E80002D0829801D082886EB002D0828401D078
:1002F80082948286F1DE82967EB602D0829E01D0FA
:10030800828E7EB402D0829C01D0828C7EB202D0D2
:10031800829A01D0828A7EB002D0829801D08288E7
:100328006EB002D0828401D082948286D5DE829615
:0C0338006EA002D0C1DE01D0CADE1200AF
:10034400086A096A000E0762036427EF02F002508C
:1003540006180A6E075003267E0ED8A0B8EF01F0E7
:10036400035ED8B02BEF02F0BCEF01F0035ED8A01F
:100374002FEF02F0028E068E02C00EF001C00BF0C9
:1003840000C00DF000500402F4CF0CF0015005023F
:10039400F4CF00F0F3CF08F00402F3500C26F4502D
:1003A4000822000E00220D500502F3500C26F450D2
:1003B4000822000E002202500402F3500826F450D2
:1003C400002202500502016A000E0122F3500026A9
:1003D400F45001220D500602F3500826F450002276
:1003E400026A000E012202220B500602F35000267C
:1003F400F4500122000E02220E500602F350012690
:10040400F450022202BE0FEF02F008360036013625
:1004140002360306D8B42FEF02F022EF02F0D880A0
:10042400800E08640030000E002201220222D8A0AF
:1004340022EF02F0023201320032034A2BEF02F0C3
:100444000AAE029E000E31EF02F0010E24DE31EFFF
:1004540002F0020E27DE31EF02F0040E0FDE12006E
:0C0464006E907DC07EF02EDF6E801200D6
:1004700081C004F082C005F004C002F005C003F0A2
:10048000044A052A83C000F084C001F00001834BB8
:10049000842B00C0E9FF01C0EAFF02C0E1FF03C0F6
:1004A000E2FFEECFE6FF02C0E9FF03C0EAFFEE5233
:0E04B00001E0E2D781C000F082C001F012002E
:1004BE000A6A0350D8A40A800750D8A40A820A50A8
:1004CE00D8B4C2EF02F0030AD8B47BEF02F00AB040
:1004DE0076EF02F006AEC0EF02F0BEEF02F002AE13
:1004EE00BEEF02F0C0EF02F00250800B0A6E029EC9
:1004FE000650800B069E0A18D8B48CEF02F00A50F4
:10050E00D8B4BEEF02F0C0EF02F00750035CD8B4CF
:10051E0096EF02F0D8A0B2EF02F0B8EF02F006505C
:10052E00025CD8B4A0EF02F0D8A0B2EF02F0B8EFA0
:10053E0002F00550015CD8B4AAEF02F0D8A0B2EFD9
:10054E0002F0B8EF02F00450005CD8B4C2EF02F033
:10055E00D8B0B8EF02F00A52D8B4C0EF02F0BEEF36
:10056E0002F00A52D8B4BEEF02F0C0EF02F0D8800B
:0E057E001200D8901200D880D884120012000B
:10058C000C6A0E6A0250D8A4DFEF02F001C002F030
:10059C0000C001F0006A0E860250D8A4DFEF02F012
:1005AC0001C002F0016A0E960E880250D8B4F1EF29
:1005BC0002F00E50035ED8A4D8A0F6EF02F0D8904B
:1005CC0002BEFBEF02F0003601360236032EE6EFD8
:1005DC0002F0F6EF02F0010E0C6E59DDFEEF02F0A8
:1005EC00020E0C6E47DDFEEF02F0040E0C6E3EDDCB
:0205FC001200EB
:1005FE000D6A086A0050D8B4000C04180A6E0ABEC0
:10060E000D1E0B6A04AE02D0041E042A00AE02D0E8
:10061E00001E002A005004100A6E0ABE1FD004509D
:10062E00085E003600340836045008260036060EE2
:10063E000C6E00340836045000B0085E00A0082688
:10064E0000360C2EF6D700A008260BB015D00DAE36
:10065E00000C001E002A081E082A000C04AE09D049
:10066E0000BE04D00050086E006AF1D7006A002A5E
:10067E00000C001E0B2AD3D7082A0450085CD8A4FD
:0E068E00E6D7086A002A00AEE2D7FF0C120081
:10069C00025006180E6E086A096A0B6A035007644A
:1006AC0041EF04F006500A6E068E028E03500B6E5C
:1006BC000750036E000E0B6491EF03F00B50075EB6
:1006CC00D8B432EF04F0070E076400EF04F0075EB5
:1006DC0000C008F001C000F002C001F0026A074E31
:1006EC0032EF04F00764D5EF03F0075E00C008F0AA
:1006FC0001C000F0016A074E32EF04F00764B3EF5B
:10070C0003F0075E00C008F0006A074E32EF04F0F9
:10071C0007649AEF03F00AC002F005C001F004C0B0
:10072C0000F0086A5EEF05F0030E0764A5EF03F016
:10073C00075E08380F0B086E074E32EF04F0D890A6
:10074C000832074E32EF04F0D8900832074E32EFE1
:10075C0004F0D890083232EF04F0030E0764C4EFB3
:10076C0003F0075E08380F0B086E0038F00B0826F4
:10077C0000380F0B006E074E32EF04F0D8900032A9
:10078C000832074E32EF04F0D89000320832074E90
:10079C0032EF04F0D8900032083232EF04F0030E3E
:1007AC000764ECEF03F0075E08380F0B086E003897
:1007BC00F00B082600380F0B006E0138F00B0026EA
:1007CC0001380F0B016E074E32EF04F0D890013256
:1007DC0000320832074E32EF04F0D890013200326A
:1007EC000832074E32EF04F0D89001320032083252
:1007FC0032EF04F0030E07641DEF04F0075E0838B7
:10080C000F0B086E0038F00B082600380F0B006E2B
:10081C000138F00B002601380F0B016E0238F00B7B
:10082C00012602380F0B026E074E32EF04F0D890FF
:10083C000232013200320832074E32EF04F0D89007
:10084C000232013200320832074E32EF04F0D890F7
:10085C000232013200320832096A000E0EAE26EF67
:10086C0005F0081E001E011E021E082A002201228D
:10087C00022226EF05F00750D8A447EF04F05EEFF4
:10088C0005F0096A02C00AF0028E068E0750035C5E
:10089C00076ED8B419EF05F0070E0764E7EF04F004
:1008AC00075E0450096E0550046E0650056E066A0C
:1008BC00074E19EF05F0070E0764BCEF04F0075E56
:1008CC000450096E0550046E056A074E19EF05F0C9
:1008DC00070E07649AEF04F0075E0450096E046A71
:1008EC00074E19EF05F0070E076481EF04F00AC0FC
:1008FC0002F05EEF05F0030E07648CEF04F0075E68
:10090C0009380F0B096E074E19EF05F0D890093214
:10091C00074E19EF05F0D8900932074E19EF05F084
:10092C00D890093219EF05F0030E0764ABEF04F011
:10093C00075E09380F0B096E0438F00B09260438D2
:10094C000F0B046E074E19EF05F0D89004320932E4
:10095C00074E19EF05F0D89004320932074E19EF03
:10096C0005F0D8900432093219EF05F0030E076434
:10097C00D3EF04F0075E09380F0B096E0438F00B47
:10098C00092604380F0B046E0538F00B04260538C5
:10099C000F0B056E074E19EF05F0D8900532043297
:1009AC000932074E19EF05F0D8900532043209329E
:1009BC00074E19EF05F0D89005320432093219EFC1
:1009CC0005F0030E076404EF05F0075E09380F0B02
:1009DC00096E0438F00B092604380F0B046E053829
:1009EC00F00B042605380F0B056E0638F00B0526A8
:1009FC0006380F0B066E074E19EF05F0D89006322D
:100A0C00053204320932074E19EF05F0D890063240
:100A1C00053204320932074E19EF05F0D890063230
:100A2C00053204320932086A000E0EAE26EF05F0CC
:100A3C00091E041E051E061E092A04220522062272
:100A4C0009500826045000220550012206500222AB
:100A5C000EBE3DEF05F0D8A04CEF05F0023201328E
:100A6C0000320832033E4CEF05F058EF05F0D8B0D9
:100A7C0052EF05F0000E081E001E011E021E082A71
:100A8C000022012202220A7E52EF05F0010E0C6EAA
:100A9C0073EC00F060EF05F0020E0C6E73EC00F0DE
:100AAC0060EF05F0040E0C6E54EC00F060EF05F0F6
:060ABC00000E0C6E12009A
:080AC2000B6A0B86FF0E120007
:100ACA000900F5CFE6FF0006FBE10106F9E1120095
:100ADA00949694949498949A949C949E82968294D0
:100AEA00829E829C829A829860EC00F060EC00F010
:100AFA0060EC00F0828A8288828670EC00F082962E
:100B0A0060EC00F0828670EC00F0829660EC00F0F7
:100B1A00828670EC00F0829660EC00F08298828601
:100B2A0070EC00F0829660EC00F0828670EC00F0C7
:100B3A008296829A828E828670EC00F0829660ECAF
:100B4A0000F0829E8288828670EC00F082968298FB
:100B5A00828670EC00F0829660EC00F0828670EC7F
:100B6A0000F082968288828670EC00F0829660ECB1
:100B7A0000F08298828670EC00F08296828E828CD7
:100B8A00828A8288828670EC00F0829660EC00F09D
:040B9A006E80120057
:100B9E000050086E0150006E016A026A036A0B6A09
:100BAE000C6A960E036E0A6A00C001F008C000F0CF
:080BBE00086A026AE4DC12007F
:100BC6007B6A7C6A6FC077F070C078F071C079F08C
:100BD60072C07AF07A50FF0A08E17950FF0A05E1FF
:100BE6007850FF0A02E17750FF0A0DE173C081F0E9
:100BF60074C082F0380E0001836F000E846F35DCFE
:100C0600030E006EF1D1010E756E79AE0ED0800E18
:100C16007918006E00C079F0752A73C0E1FF74C0C0
:100C2600E2FF2D0EE66E734A742A000E006E7A18E5
:100C360008E10050791805E10050781802E1775074
:100C4600000A0CE1000173C081F074C082F03C0E12
:100C5600836F000E846F09DC006AC6D17A50FF0AE2
:100C660008E17950000A05E17850000A02E1775060
:100C7600000A0EE1000173C081F074C082F03E0EDE
:100C8600836F000E846F38EC02F075C000F0ACD1B3
:100C9600000E046E000E056E000E066E7F0E076EC9
:100CA60077C000F078C001F079C002F07AC003F096
:100CB60003DC010ED8B0000E006E00521CE077C0B7
:100CC60000F078C001F079C002F07AC003F0000E9F
:100CD600046E000E056E200E066E820E076EA2ECE6
:100CE60001F000C077F001C078F002C079F003C0CF
:100CF6007AF07C06CDD7000E046E000E056E200E2F
:100D0600066E820E076E77C000F078C001F079C0DB
:100D160002F07AC003F05FEC02F0000ED8B0010ECC
:100D2600006E00521CE077C000F078C001F079C078
:100D360002F07AC003F0CD0E046ECC0E056E4C0E9A
:100D4600066E7B0E076EA2EC01F000C077F001C0C4
:100D560078F002C079F003C07AF07C2ACCD7FF0E77
:100D66007714086EFF0E7814096E7F0E79140A6EDA
:100D7600000E7A140B6E08C004F009C005F00AC014
:100D860006F00BC007F00436049005360636073623
:100D9600000E7714006E000E7814016E000E7914A2
:100DA600026EFF0E7A14036E00C077F001C078F071
:100DB60002C079F003C07AF004507710006E055037
:100DC6007810016E06507910026E07507A10036E85
:100DD60000C077F001C078F002C079F003C07AF065
:100DE6007F0E7A5C006E00C076F0010E7A6E00C04F
:100DF60004F077C000F078C001F079C002F07AC044
:100E060003F0045007E00036009001360236033640
:100E1600FF0FF8D700C077F001C078F002C079F074
:100E260003C07AF073C0E1FF74C0E2FF7A50300F5E
:100E3600E66E734A742A800E7C18006E800E010AD4
:100E4600005C08E3800E060A006E800E7C18005CCB
:100E560001E30AD073C0E1FF74C0E2FF2E0EE66E16
:100E6600734A742A010E7B6E060E766E7650000A61
:100E760054E07A6A77C000F078C001F079C002F0D9
:100E86007AC003F00036009001360236033600368B
:100E9600009001360236033677500026785001223C
:100EA600795002227A50032200C077F001C078F010
:100EB60002C079F003C07AF077C000F078C001F084
:100EC60079C002F07AC003F000360090013602368F
:100ED600033600C077F001C078F002C079F003C095
:100EE6007AF073C0E1FF74C0E2FF7A50300FE66E0D
:100EF600734A742A7B50000A0EE17C067C50000A75
:100F06000AE173C0E1FF74C0E2FF2E0EE66E734A7B
:100F1600742A010E7B6E7606A9D7FF0E7324E96E3E
:100F2600FF0E7420EA6EEE50300A05E1010E735E84
:100F3600000E745AF2D7FF0E7324E96EFF0E74206A
:100F4600EA6EEE502E0A04E1010E735E000E745A2C
:100F56007C50000A43E073C0E1FF74C0E2FF650EF7
:100F6600E66E734A742A800E7C18006E800E000AA4
:100F7600005C0BE273C0E1FF74C0E2FF2D0EE66E6B
:100F8600734A742A7C5000087C6E7CC076F0800E12
:100F9600090A006E800E7C18005C0FE20A0E046ED1
:100FA60076C000F0FFEC02F073C0E1FF74C0E2FF10
:100FB6000050300FE66E734A742A0A0E046E76C02D
:100FC60000F0FFEC02F008C000F073C0E1FF74C04F
:100FD600E2FF0050300FE66E734A742A73C0E1FFD9
:0A0FE60074C0E2FFE66A006A120020
:100FF0000FD0800E6F6E19D0C00E6F6E16D0940E8B
:101000006F6E13D0D40E6F6E10D0800E6F6E0DD039
:101010006F50010AEEE06F50020AEEE06F50030AD3
:10102000EEE06F50040AEEE0F0D77004006E6F50EF
:10103000002600C06FF000C07EF064EC01F06E90FE
:10104000736A73507124E96E000E7220EA6EEE52DC
:101050000CE073507124E96E000E7220EA6EEECF40
:0E1060007DF032EC02F0732AECD76E801200A5
:08106E00067E4EEC03F01200B7
:101076000450000A12E10550000A0FE10650000A6A
:101086000CE10750000A09E1FF0E006EFF0E016E2B
:101096007F0E026EFF0E036EA7D0086A096A07501C
:1010A600D8B4E6EF08F00350D8B4EAEF08F00250DF
:1010B60006180A6E028E068E0E6A02C008F001C07D
:1010C6000CF000C00DF004500D5E0550D8A0053C94
:1010D6000C5E0650D8A0063C085E086A0C6A0D6ACB
:1010E600D8A07DEF08F0D8900232013200320832E3
:1010F600010E0E6E0750035ED8A08AEF08F07E0E32
:101106000E240326D8B0EFEF08F090EF08F07E0E1D
:101116000E240326D8A0F4EF08F0180E0B6E0D3639
:101126000C3608360036013602360E360450005E9E
:101136000550D8A0053C015E0650D8A0063C025ECC
:1011460006340E120EA0ABEF08F00D80B6EF08F0D5
:10115600045000260550D8B0053C01260650D8B0EC
:10116600062802260D900B2E92EF08F0DCEF08F011
:10117600D8900036013602360E360450005E055011
:10118600D8A0053C015E0650D8A0063C025E063497
:101196000E10010B0D26D8B00C2AD8B4082AD8A4F4
:1011A600DCEF08F008320C320D32032AD8B4EFEF28
:1011B60008F00AAE089E0850026E0C50016E0D50E3
:1011C600006EF7EF08F0010E79DCF7EF08F0020E7B
:1011D6004DEC00F0F7EF08F0040E54EC00F0F7EFDA
:0A11E60008F0080E40EC00F01200C3
:1011F000E4EC0AF0C00EC16E93909382946A9684D8
:10120000790EC26E6ADC010E7E6E64EC01F0F18A2A
:10121000F090F0869E9C9D8CF28C840ED56EF2949C
:10122000F28AF28E29C000F0016A00C0D7FF28C000
:10123000D6FF000E271802E1010E2618D8A49ED171
:1012400032C000F033C001F0AADC0A0E046E280E92
:10125000056E200E066E770E076EA2EC01F000C040
:101260002AF001C02BF002C02CF003C02DF0CD0EEF
:10127000046ECC0E056E580E066E840E076EA2EC40
:1012800001F08F0E046EC20E056E610E066E820EA8
:10129000076EEDDE00C02EF001C02FF002C030F06E
:1012A00003C031F0000E1D1802E1000E1C1814E1FD
:1012B0002EC018F02FC019F030C01AF031C01BF04A
:1012C0005F0E0001816F000E826F220E836F000E91
:1012D000846F38EC02F02CD1000E1D1802E1010ED3
:1012E0001C1825E1000E046E910E056E5C0E066E54
:1012F000810E076E2EC000F02FC001F030C002F04A
:1013000031C003F0B8DE00C018F001C019F002C00F
:101310001AF003C01BF05F0E0001816F000E826F98
:101320001E0E836F000E846F38EC02F001D1000EA8
:101330001D1802E1020E1C1825E1660E046EA60EB1
:10134000056E4A0E066E850E076E2EC000F02FC089
:1013500001F030C002F031C003F08DDE00C018F0A3
:1013600001C019F002C01AF003C01BF05F0E0001AB
:10137000816F000E826F340E836F000E846F38EC25
:1013800002F0D6D0000E1D1802E1030E1C1825E154
:10139000CD0E046ECC0E056E4C0E066E7B0E076EE7
:1013A0002EC000F02FC001F030C002F031C003F0B9
:1013B00062DE00C018F001C019F002C01AF003C0CC
:1013C0001BF05F0E0001816F000E826F470E836F6E
:1013D000000E846F38EC02F0ABD0000E1D1802E155
:1013E000040E1C1825E18D0E046E7A0E056E080E93
:1013F000066E7C0E076E2EC000F02FC001F030C0CC
:1014000002F031C003F037DE00C018F001C019F05F
:1014100002C01AF003C01BF05F0E0001816F000EC6
:10142000826F420E836F000E846F38EC02F080D022
:10143000000E1D1802E1050E1C1825E16F0E046E4A
:10144000120E056E030E066E750E076E2EC000F0AE
:101450002FC001F030C002F031C003F00CDE00C03C
:1014600018F001C019F002C01AF003C01BF05F0EA3
:101470000001816F000E826F4C0E836F000E846F2F
:1014800038EC02F055D0000E1D1802E1060E1C18B3
:1014900025E1330E046E330E056E440E066E850E86
:1014A000076E2EC000F02FC001F030C002F031C036
:1014B00003F0E1DD00C018F001C019F002C01AF01D
:1014C00003C01BF05F0E0001816F000E826F580E8B
:1014D000836F000E846F38EC02F02AD0000E1D18C6
:1014E00002E1070E1C1824E1330E046E330E056E64
:1014F000440E066E850E076E2EC000F02FC001F060
:1015000030C002F031C003F0B6DD00C018F001C0F9
:1015100019F002C01AF003C01BF05F0E0001816FCA
:10152000000E826F510E836F000E846F38EC02F054
:10153000010E7E6E64EC01F018C06FF019C070F0FF
:101540001AC071F01BC072F0640E736E000E746EE0
:10155000E3EC05F0010E6F6E010E706E640E716E9D
:10156000000E726E45DD010E6F6E080E706E5F0E1E
:10157000716E000E726E3CDD266A276A5AD6FFD75E
:1015C80010EE18F0470E006E010E016E800EF66EDA
:0E15D800150EF76E000EF86E65EC05F01200B1
:041580000000000067
:02158400000065
:041586005073690035
:04158A004B70610041
:02158E0000005B
:02159000DC0B72
:041592000000000055
:041596000000000051
:02159A0000004F
:04159C0041746D0029
:0415A0004E614E004A
:0215A400300015
:0415A600494E460064
:0515AA006D6D486700B3
:0515AF006D42617200B5
:0515B4004E2F6D320016
:0715B9006B702F636D33001E
:0715C0004B672F636D330040
:020000040030CA
:0D000100220F0EFF0181FF0FC00FE00F4026
:00000001FF
